{
	"data": {
		"bytecode": {
			"linkReferences": {},
			"object": "6080604052600a5f5560066001556003600255348015601c575f80fd5b506104978061002a5f395ff3fe608060405234801561000f575f80fd5b506004361061004a575f3560e01c80631151fad81461004e57806346d46df21461006c57806393daa3671461008e578063980a67fd146100ae575b5f80fd5b6100566100d0565b60405161006391906101f6565b60405180910390f35b6100746100d5565b604051610085959493929190610229565b60405180910390f35b610096610124565b6040516100a59392919061027a565b60405180910390f35b6100b6610169565b6040516100c79594939291906102af565b60405180910390f35b5f5481565b5f805f805f805f546001541490505f8054600154141590505f80546001541190505f80546001541090505f80546001541015905084848484849950995099509950995050505050509091929394565b5f805f8060055f541190505f60056001541090505f8280156101435750815b90505f838061014f5750825b90505f841590508282829750975097505050505050909192565b5f805f805f8060055f5461017d919061032d565b90505f60055f5461018e9190610360565b90505f60055f5461019f9190610393565b90505f60055f546101b09190610401565b90505f60055f546101c19190610431565b905084848484849950995099509950995050505050509091929394565b5f819050919050565b6101f0816101de565b82525050565b5f6020820190506102095f8301846101e7565b92915050565b5f8115159050919050565b6102238161020f565b82525050565b5f60a08201905061023c5f83018861021a565b610249602083018761021a565b610256604083018661021a565b610263606083018561021a565b610270608083018461021a565b9695505050505050565b5f60608201905061028d5f83018661021a565b61029a602083018561021a565b6102a7604083018461021a565b949350505050565b5f60a0820190506102c25f8301886101e7565b6102cf60208301876101e7565b6102dc60408301866101e7565b6102e960608301856101e7565b6102f660808301846101e7565b9695505050505050565b7f4e487b71000000000000000000000000000000000000000000000000000000005f52601160045260245ffd5b5f610337826101de565b9150610342836101de565b925082820190508082111561035a57610359610300565b5b92915050565b5f61036a826101de565b9150610375836101de565b925082820390508181111561038d5761038c610300565b5b92915050565b5f61039d826101de565b91506103a8836101de565b92508282026103b6816101de565b915082820484148315176103cd576103cc610300565b5b5092915050565b7f4e487b71000000000000000000000000000000000000000000000000000000005f52601260045260245ffd5b5f61040b826101de565b9150610416836101de565b925082610426576104256103d4565b5b828204905092915050565b5f61043b826101de565b9150610446836101de565b925082610456576104556103d4565b5b82820690509291505056fea2646970667358221220b1041cd55a227be54313adaaf6ab2106ba22eda66d5b3f21c5b2b3d3bfb6610364736f6c634300081a0033",
			"opcodes": "PUSH1 0x80 PUSH1 0x40 MSTORE PUSH1 0xA PUSH0 SSTORE PUSH1 0x6 PUSH1 0x1 SSTORE PUSH1 0x3 PUSH1 0x2 SSTORE CALLVALUE DUP1 ISZERO PUSH1 0x1C JUMPI PUSH0 DUP1 REVERT JUMPDEST POP PUSH2 0x497 DUP1 PUSH2 0x2A PUSH0 CODECOPY PUSH0 RETURN INVALID PUSH1 0x80 PUSH1 0x40 MSTORE CALLVALUE DUP1 ISZERO PUSH2 0xF JUMPI PUSH0 DUP1 REVERT JUMPDEST POP PUSH1 0x4 CALLDATASIZE LT PUSH2 0x4A JUMPI PUSH0 CALLDATALOAD PUSH1 0xE0 SHR DUP1 PUSH4 0x1151FAD8 EQ PUSH2 0x4E JUMPI DUP1 PUSH4 0x46D46DF2 EQ PUSH2 0x6C JUMPI DUP1 PUSH4 0x93DAA367 EQ PUSH2 0x8E JUMPI DUP1 PUSH4 0x980A67FD EQ PUSH2 0xAE JUMPI JUMPDEST PUSH0 DUP1 REVERT JUMPDEST PUSH2 0x56 PUSH2 0xD0 JUMP JUMPDEST PUSH1 0x40 MLOAD PUSH2 0x63 SWAP2 SWAP1 PUSH2 0x1F6 JUMP JUMPDEST PUSH1 0x40 MLOAD DUP1 SWAP2 SUB SWAP1 RETURN JUMPDEST PUSH2 0x74 PUSH2 0xD5 JUMP JUMPDEST PUSH1 0x40 MLOAD PUSH2 0x85 SWAP6 SWAP5 SWAP4 SWAP3 SWAP2 SWAP1 PUSH2 0x229 JUMP JUMPDEST PUSH1 0x40 MLOAD DUP1 SWAP2 SUB SWAP1 RETURN JUMPDEST PUSH2 0x96 PUSH2 0x124 JUMP JUMPDEST PUSH1 0x40 MLOAD PUSH2 0xA5 SWAP4 SWAP3 SWAP2 SWAP1 PUSH2 0x27A JUMP JUMPDEST PUSH1 0x40 MLOAD DUP1 SWAP2 SUB SWAP1 RETURN JUMPDEST PUSH2 0xB6 PUSH2 0x169 JUMP JUMPDEST PUSH1 0x40 MLOAD PUSH2 0xC7 SWAP6 SWAP5 SWAP4 SWAP3 SWAP2 SWAP1 PUSH2 0x2AF JUMP JUMPDEST PUSH1 0x40 MLOAD DUP1 SWAP2 SUB SWAP1 RETURN JUMPDEST PUSH0 SLOAD DUP2 JUMP JUMPDEST PUSH0 DUP1 PUSH0 DUP1 PUSH0 DUP1 PUSH0 SLOAD PUSH1 0x1 SLOAD EQ SWAP1 POP PUSH0 DUP1 SLOAD PUSH1 0x1 SLOAD EQ ISZERO SWAP1 POP PUSH0 DUP1 SLOAD PUSH1 0x1 SLOAD GT SWAP1 POP PUSH0 DUP1 SLOAD PUSH1 0x1 SLOAD LT SWAP1 POP PUSH0 DUP1 SLOAD PUSH1 0x1 SLOAD LT ISZERO SWAP1 POP DUP5 DUP5 DUP5 DUP5 DUP5 SWAP10 POP SWAP10 POP SWAP10 POP SWAP10 POP SWAP10 POP POP POP POP POP POP SWAP1 SWAP2 SWAP3 SWAP4 SWAP5 JUMP JUMPDEST PUSH0 DUP1 PUSH0 DUP1 PUSH1 0x5 PUSH0 SLOAD GT SWAP1 POP PUSH0 PUSH1 0x5 PUSH1 0x1 SLOAD LT SWAP1 POP PUSH0 DUP3 DUP1 ISZERO PUSH2 0x143 JUMPI POP DUP2 JUMPDEST SWAP1 POP PUSH0 DUP4 DUP1 PUSH2 0x14F JUMPI POP DUP3 JUMPDEST SWAP1 POP PUSH0 DUP5 ISZERO SWAP1 POP DUP3 DUP3 DUP3 SWAP8 POP SWAP8 POP SWAP8 POP POP POP POP POP POP SWAP1 SWAP2 SWAP3 JUMP JUMPDEST PUSH0 DUP1 PUSH0 DUP1 PUSH0 DUP1 PUSH1 0x5 PUSH0 SLOAD PUSH2 0x17D SWAP2 SWAP1 PUSH2 0x32D JUMP JUMPDEST SWAP1 POP PUSH0 PUSH1 0x5 PUSH0 SLOAD PUSH2 0x18E SWAP2 SWAP1 PUSH2 0x360 JUMP JUMPDEST SWAP1 POP PUSH0 PUSH1 0x5 PUSH0 SLOAD PUSH2 0x19F SWAP2 SWAP1 PUSH2 0x393 JUMP JUMPDEST SWAP1 POP PUSH0 PUSH1 0x5 PUSH0 SLOAD PUSH2 0x1B0 SWAP2 SWAP1 PUSH2 0x401 JUMP JUMPDEST SWAP1 POP PUSH0 PUSH1 0x5 PUSH0 SLOAD PUSH2 0x1C1 SWAP2 SWAP1 PUSH2 0x431 JUMP JUMPDEST SWAP1 POP DUP5 DUP5 DUP5 DUP5 DUP5 SWAP10 POP SWAP10 POP SWAP10 POP SWAP10 POP SWAP10 POP POP POP POP POP POP SWAP1 SWAP2 SWAP3 SWAP4 SWAP5 JUMP JUMPDEST PUSH0 DUP2 SWAP1 POP SWAP2 SWAP1 POP JUMP JUMPDEST PUSH2 0x1F0 DUP2 PUSH2 0x1DE JUMP JUMPDEST DUP3 MSTORE POP POP JUMP JUMPDEST PUSH0 PUSH1 0x20 DUP3 ADD SWAP1 POP PUSH2 0x209 PUSH0 DUP4 ADD DUP5 PUSH2 0x1E7 JUMP JUMPDEST SWAP3 SWAP2 POP POP JUMP JUMPDEST PUSH0 DUP2 ISZERO ISZERO SWAP1 POP SWAP2 SWAP1 POP JUMP JUMPDEST PUSH2 0x223 DUP2 PUSH2 0x20F JUMP JUMPDEST DUP3 MSTORE POP POP JUMP JUMPDEST PUSH0 PUSH1 0xA0 DUP3 ADD SWAP1 POP PUSH2 0x23C PUSH0 DUP4 ADD DUP9 PUSH2 0x21A JUMP JUMPDEST PUSH2 0x249 PUSH1 0x20 DUP4 ADD DUP8 PUSH2 0x21A JUMP JUMPDEST PUSH2 0x256 PUSH1 0x40 DUP4 ADD DUP7 PUSH2 0x21A JUMP JUMPDEST PUSH2 0x263 PUSH1 0x60 DUP4 ADD DUP6 PUSH2 0x21A JUMP JUMPDEST PUSH2 0x270 PUSH1 0x80 DUP4 ADD DUP5 PUSH2 0x21A JUMP JUMPDEST SWAP7 SWAP6 POP POP POP POP POP POP JUMP JUMPDEST PUSH0 PUSH1 0x60 DUP3 ADD SWAP1 POP PUSH2 0x28D PUSH0 DUP4 ADD DUP7 PUSH2 0x21A JUMP JUMPDEST PUSH2 0x29A PUSH1 0x20 DUP4 ADD DUP6 PUSH2 0x21A JUMP JUMPDEST PUSH2 0x2A7 PUSH1 0x40 DUP4 ADD DUP5 PUSH2 0x21A JUMP JUMPDEST SWAP5 SWAP4 POP POP POP POP JUMP JUMPDEST PUSH0 PUSH1 0xA0 DUP3 ADD SWAP1 POP PUSH2 0x2C2 PUSH0 DUP4 ADD DUP9 PUSH2 0x1E7 JUMP JUMPDEST PUSH2 0x2CF PUSH1 0x20 DUP4 ADD DUP8 PUSH2 0x1E7 JUMP JUMPDEST PUSH2 0x2DC PUSH1 0x40 DUP4 ADD DUP7 PUSH2 0x1E7 JUMP JUMPDEST PUSH2 0x2E9 PUSH1 0x60 DUP4 ADD DUP6 PUSH2 0x1E7 JUMP JUMPDEST PUSH2 0x2F6 PUSH1 0x80 DUP4 ADD DUP5 PUSH2 0x1E7 JUMP JUMPDEST SWAP7 SWAP6 POP POP POP POP POP POP JUMP JUMPDEST PUSH32 0x4E487B7100000000000000000000000000000000000000000000000000000000 PUSH0 MSTORE PUSH1 0x11 PUSH1 0x4 MSTORE PUSH1 0x24 PUSH0 REVERT JUMPDEST PUSH0 PUSH2 0x337 DUP3 PUSH2 0x1DE JUMP JUMPDEST SWAP2 POP PUSH2 0x342 DUP4 PUSH2 0x1DE JUMP JUMPDEST SWAP3 POP DUP3 DUP3 ADD SWAP1 POP DUP1 DUP3 GT ISZERO PUSH2 0x35A JUMPI PUSH2 0x359 PUSH2 0x300 JUMP JUMPDEST JUMPDEST SWAP3 SWAP2 POP POP JUMP JUMPDEST PUSH0 PUSH2 0x36A DUP3 PUSH2 0x1DE JUMP JUMPDEST SWAP2 POP PUSH2 0x375 DUP4 PUSH2 0x1DE JUMP JUMPDEST SWAP3 POP DUP3 DUP3 SUB SWAP1 POP DUP2 DUP2 GT ISZERO PUSH2 0x38D JUMPI PUSH2 0x38C PUSH2 0x300 JUMP JUMPDEST JUMPDEST SWAP3 SWAP2 POP POP JUMP JUMPDEST PUSH0 PUSH2 0x39D DUP3 PUSH2 0x1DE JUMP JUMPDEST SWAP2 POP PUSH2 0x3A8 DUP4 PUSH2 0x1DE JUMP JUMPDEST SWAP3 POP DUP3 DUP3 MUL PUSH2 0x3B6 DUP2 PUSH2 0x1DE JUMP JUMPDEST SWAP2 POP DUP3 DUP3 DIV DUP5 EQ DUP4 ISZERO OR PUSH2 0x3CD JUMPI PUSH2 0x3CC PUSH2 0x300 JUMP JUMPDEST JUMPDEST POP SWAP3 SWAP2 POP POP JUMP JUMPDEST PUSH32 0x4E487B7100000000000000000000000000000000000000000000000000000000 PUSH0 MSTORE PUSH1 0x12 PUSH1 0x4 MSTORE PUSH1 0x24 PUSH0 REVERT JUMPDEST PUSH0 PUSH2 0x40B DUP3 PUSH2 0x1DE JUMP JUMPDEST SWAP2 POP PUSH2 0x416 DUP4 PUSH2 0x1DE JUMP JUMPDEST SWAP3 POP DUP3 PUSH2 0x426 JUMPI PUSH2 0x425 PUSH2 0x3D4 JUMP JUMPDEST JUMPDEST DUP3 DUP3 DIV SWAP1 POP SWAP3 SWAP2 POP POP JUMP JUMPDEST PUSH0 PUSH2 0x43B DUP3 PUSH2 0x1DE JUMP JUMPDEST SWAP2 POP PUSH2 0x446 DUP4 PUSH2 0x1DE JUMP JUMPDEST SWAP3 POP DUP3 PUSH2 0x456 JUMPI PUSH2 0x455 PUSH2 0x3D4 JUMP JUMPDEST JUMPDEST DUP3 DUP3 MOD SWAP1 POP SWAP3 SWAP2 POP POP JUMP INVALID LOG2 PUSH5 0x6970667358 0x22 SLT KECCAK256 0xB1 DIV SHR 0xD5 GAS 0x22 PUSH28 0xE54313ADAAF6AB2106BA22EDA66D5B3F21C5B2B3D3BFB6610364736F PUSH13 0x634300081A0033000000000000 "
		},
		"gasEstimates": {
			"creation": {
				"codeDepositCost": "235000",
				"executionCost": "66590",
				"totalCost": "301590"
			},
			"external": {
				"arithmetic()": "infinite",
				"logical()": "infinite",
				"publicVar()": "2402",
				"relational()": "infinite"
			}
		},
		"methodIdentifiers": {
			"arithmetic()": "980a67fd",
			"logical()": "93daa367",
			"publicVar()": "1151fad8",
			"relational()": "46d46df2"
		}
	},
	"abi": [
		{
			"inputs": [],
			"name": "arithmetic",
			"outputs": [
				{
					"internalType": "uint256",
					"name": "",
					"type": "uint256"
				},
				{
					"internalType": "uint256",
					"name": "",
					"type": "uint256"
				},
				{
					"internalType": "uint256",
					"name": "",
					"type": "uint256"
				},
				{
					"internalType": "uint256",
					"name": "",
					"type": "uint256"
				},
				{
					"internalType": "uint256",
					"name": "",
					"type": "uint256"
				}
			],
			"stateMutability": "view",
			"type": "function"
		},
		{
			"inputs": [],
			"name": "logical",
			"outputs": [
				{
					"internalType": "bool",
					"name": "",
					"type": "bool"
				},
				{
					"internalType": "bool",
					"name": "",
					"type": "bool"
				},
				{
					"internalType": "bool",
					"name": "",
					"type": "bool"
				}
			],
			"stateMutability": "view",
			"type": "function"
		},
		{
			"inputs": [],
			"name": "publicVar",
			"outputs": [
				{
					"internalType": "uint256",
					"name": "",
					"type": "uint256"
				}
			],
			"stateMutability": "view",
			"type": "function"
		},
		{
			"inputs": [],
			"name": "relational",
			"outputs": [
				{
					"internalType": "bool",
					"name": "",
					"type": "bool"
				},
				{
					"internalType": "bool",
					"name": "",
					"type": "bool"
				},
				{
					"internalType": "bool",
					"name": "",
					"type": "bool"
				},
				{
					"internalType": "bool",
					"name": "",
					"type": "bool"
				},
				{
					"internalType": "bool",
					"name": "",
					"type": "bool"
				}
			],
			"stateMutability": "view",
			"type": "function"
		}
	]
}