{
	"My Journey/01.sol": {
		"Calculator": {
			"abi": [
				{
					"inputs": [
						{
							"internalType": "uint256",
							"name": "num",
							"type": "uint256"
						}
					],
					"name": "add",
					"outputs": [],
					"stateMutability": "nonpayable",
					"type": "function"
				},
				{
					"inputs": [
						{
							"internalType": "uint256",
							"name": "num",
							"type": "uint256"
						}
					],
					"name": "divide",
					"outputs": [],
					"stateMutability": "nonpayable",
					"type": "function"
				},
				{
					"inputs": [],
					"name": "get",
					"outputs": [
						{
							"internalType": "uint256",
							"name": "",
							"type": "uint256"
						}
					],
					"stateMutability": "view",
					"type": "function"
				},
				{
					"inputs": [
						{
							"internalType": "uint136",
							"name": "num",
							"type": "uint136"
						}
					],
					"name": "multiply",
					"outputs": [],
					"stateMutability": "nonpayable",
					"type": "function"
				},
				{
					"inputs": [
						{
							"internalType": "uint24",
							"name": "num",
							"type": "uint24"
						}
					],
					"name": "subtract",
					"outputs": [],
					"stateMutability": "nonpayable",
					"type": "function"
				}
			],
			"devdoc": {
				"kind": "dev",
				"methods": {},
				"version": 1
			},
			"evm": {
				"assembly": "    /* \"My Journey/01.sol\":73:506  contract Calculator {... */\n  mstore(0x40, 0x80)\n    /* \"My Journey/01.sol\":117:118  0 */\n  0x00\n    /* \"My Journey/01.sol\":100:118  uint256 result = 0 */\n  dup1\n  sstore\n    /* \"My Journey/01.sol\":73:506  contract Calculator {... */\n  callvalue\n  dup1\n  iszero\n  tag_1\n  jumpi\n  0x00\n  dup1\n  revert\ntag_1:\n  pop\n  dataSize(sub_0)\n  dup1\n  dataOffset(sub_0)\n  0x00\n  codecopy\n  0x00\n  return\nstop\n\nsub_0: assembly {\n        /* \"My Journey/01.sol\":73:506  contract Calculator {... */\n      mstore(0x40, 0x80)\n      callvalue\n      dup1\n      iszero\n      tag_1\n      jumpi\n      0x00\n      dup1\n      revert\n    tag_1:\n      pop\n      jumpi(tag_2, lt(calldatasize, 0x04))\n      shr(0xe0, calldataload(0x00))\n      dup1\n      0x1003e2d2\n      eq\n      tag_3\n      jumpi\n      dup1\n      0x3e823f79\n      eq\n      tag_4\n      jumpi\n      dup1\n      0x512581ba\n      eq\n      tag_5\n      jumpi\n      dup1\n      0x6d4ce63c\n      eq\n      tag_6\n      jumpi\n      dup1\n      0x7a6f43f5\n      eq\n      tag_7\n      jumpi\n    tag_2:\n      0x00\n      dup1\n      revert\n        /* \"My Journey/01.sol\":127:192  function add(uint256 num) public {... */\n    tag_3:\n      tag_8\n      0x04\n      dup1\n      calldatasize\n      sub\n      dup2\n      add\n      swap1\n      tag_9\n      swap2\n      swap1\n      tag_10\n      jump\t// in\n    tag_9:\n      tag_11\n      jump\t// in\n    tag_8:\n      stop\n        /* \"My Journey/01.sol\":354:423  function divide(uint256 num ) public {... */\n    tag_4:\n      tag_12\n      0x04\n      dup1\n      calldatasize\n      sub\n      dup2\n      add\n      swap1\n      tag_13\n      swap2\n      swap1\n      tag_10\n      jump\t// in\n    tag_13:\n      tag_14\n      jump\t// in\n    tag_12:\n      stop\n        /* \"My Journey/01.sol\":200:268  function subtract(uint24 num) public{... */\n    tag_5:\n      tag_15\n      0x04\n      dup1\n      calldatasize\n      sub\n      dup2\n      add\n      swap1\n      tag_16\n      swap2\n      swap1\n      tag_17\n      jump\t// in\n    tag_16:\n      tag_18\n      jump\t// in\n    tag_15:\n      stop\n        /* \"My Journey/01.sol\":431:503  function get() public view returns(uint){... */\n    tag_6:\n      tag_19\n      tag_20\n      jump\t// in\n    tag_19:\n      mload(0x40)\n      tag_21\n      swap2\n      swap1\n      tag_22\n      jump\t// in\n    tag_21:\n      mload(0x40)\n      dup1\n      swap2\n      sub\n      swap1\n      return\n        /* \"My Journey/01.sol\":276:346  function multiply (uint136 num) public{... */\n    tag_7:\n      tag_23\n      0x04\n      dup1\n      calldatasize\n      sub\n      dup2\n      add\n      swap1\n      tag_24\n      swap2\n      swap1\n      tag_25\n      jump\t// in\n    tag_24:\n      tag_26\n      jump\t// in\n    tag_23:\n      stop\n        /* \"My Journey/01.sol\":127:192  function add(uint256 num) public {... */\n    tag_11:\n        /* \"My Journey/01.sol\":181:184  num */\n      dup1\n        /* \"My Journey/01.sol\":171:177  result */\n      0x00\n      dup1\n        /* \"My Journey/01.sol\":171:184  result += num */\n      dup3\n      dup3\n      sload\n      tag_28\n      swap2\n      swap1\n      tag_29\n      jump\t// in\n    tag_28:\n      swap3\n      pop\n      pop\n      dup2\n      swap1\n      sstore\n      pop\n        /* \"My Journey/01.sol\":127:192  function add(uint256 num) public {... */\n      pop\n      jump\t// out\n        /* \"My Journey/01.sol\":354:423  function divide(uint256 num ) public {... */\n    tag_14:\n        /* \"My Journey/01.sol\":412:415  num */\n      dup1\n        /* \"My Journey/01.sol\":402:408  result */\n      0x00\n      dup1\n        /* \"My Journey/01.sol\":402:415  result /= num */\n      dup3\n      dup3\n      sload\n      tag_31\n      swap2\n      swap1\n      tag_32\n      jump\t// in\n    tag_31:\n      swap3\n      pop\n      pop\n      dup2\n      swap1\n      sstore\n      pop\n        /* \"My Journey/01.sol\":354:423  function divide(uint256 num ) public {... */\n      pop\n      jump\t// out\n        /* \"My Journey/01.sol\":200:268  function subtract(uint24 num) public{... */\n    tag_18:\n        /* \"My Journey/01.sol\":257:260  num */\n      dup1\n        /* \"My Journey/01.sol\":247:260  result -= num */\n      0xffffff\n      and\n        /* \"My Journey/01.sol\":247:253  result */\n      0x00\n      dup1\n        /* \"My Journey/01.sol\":247:260  result -= num */\n      dup3\n      dup3\n      sload\n      tag_34\n      swap2\n      swap1\n      tag_35\n      jump\t// in\n    tag_34:\n      swap3\n      pop\n      pop\n      dup2\n      swap1\n      sstore\n      pop\n        /* \"My Journey/01.sol\":200:268  function subtract(uint24 num) public{... */\n      pop\n      jump\t// out\n        /* \"My Journey/01.sol\":431:503  function get() public view returns(uint){... */\n    tag_20:\n        /* \"My Journey/01.sol\":466:470  uint */\n      0x00\n        /* \"My Journey/01.sol\":489:495  result */\n      dup1\n      sload\n        /* \"My Journey/01.sol\":482:495  return result */\n      swap1\n      pop\n        /* \"My Journey/01.sol\":431:503  function get() public view returns(uint){... */\n      swap1\n      jump\t// out\n        /* \"My Journey/01.sol\":276:346  function multiply (uint136 num) public{... */\n    tag_26:\n        /* \"My Journey/01.sol\":335:338  num */\n      dup1\n        /* \"My Journey/01.sol\":325:338  result *= num */\n      0xffffffffffffffffffffffffffffffffff\n      and\n        /* \"My Journey/01.sol\":325:331  result */\n      0x00\n      dup1\n        /* \"My Journey/01.sol\":325:338  result *= num */\n      dup3\n      dup3\n      sload\n      tag_38\n      swap2\n      swap1\n      tag_39\n      jump\t// in\n    tag_38:\n      swap3\n      pop\n      pop\n      dup2\n      swap1\n      sstore\n      pop\n        /* \"My Journey/01.sol\":276:346  function multiply (uint136 num) public{... */\n      pop\n      jump\t// out\n        /* \"#utility.yul\":88:205   */\n    tag_41:\n        /* \"#utility.yul\":197:198   */\n      0x00\n        /* \"#utility.yul\":194:195   */\n      dup1\n        /* \"#utility.yul\":187:199   */\n      revert\n        /* \"#utility.yul\":334:411   */\n    tag_43:\n        /* \"#utility.yul\":371:378   */\n      0x00\n        /* \"#utility.yul\":400:405   */\n      dup2\n        /* \"#utility.yul\":389:405   */\n      swap1\n      pop\n        /* \"#utility.yul\":334:411   */\n      swap2\n      swap1\n      pop\n      jump\t// out\n        /* \"#utility.yul\":417:539   */\n    tag_44:\n        /* \"#utility.yul\":490:514   */\n      tag_61\n        /* \"#utility.yul\":508:513   */\n      dup2\n        /* \"#utility.yul\":490:514   */\n      tag_43\n      jump\t// in\n    tag_61:\n        /* \"#utility.yul\":483:488   */\n      dup2\n        /* \"#utility.yul\":480:515   */\n      eq\n        /* \"#utility.yul\":470:533   */\n      tag_62\n      jumpi\n        /* \"#utility.yul\":529:530   */\n      0x00\n        /* \"#utility.yul\":526:527   */\n      dup1\n        /* \"#utility.yul\":519:531   */\n      revert\n        /* \"#utility.yul\":470:533   */\n    tag_62:\n        /* \"#utility.yul\":417:539   */\n      pop\n      jump\t// out\n        /* \"#utility.yul\":545:684   */\n    tag_45:\n        /* \"#utility.yul\":591:596   */\n      0x00\n        /* \"#utility.yul\":629:635   */\n      dup2\n        /* \"#utility.yul\":616:636   */\n      calldataload\n        /* \"#utility.yul\":607:636   */\n      swap1\n      pop\n        /* \"#utility.yul\":645:678   */\n      tag_64\n        /* \"#utility.yul\":672:677   */\n      dup2\n        /* \"#utility.yul\":645:678   */\n      tag_44\n      jump\t// in\n    tag_64:\n        /* \"#utility.yul\":545:684   */\n      swap3\n      swap2\n      pop\n      pop\n      jump\t// out\n        /* \"#utility.yul\":690:1019   */\n    tag_10:\n        /* \"#utility.yul\":749:755   */\n      0x00\n        /* \"#utility.yul\":798:800   */\n      0x20\n        /* \"#utility.yul\":786:795   */\n      dup3\n        /* \"#utility.yul\":777:784   */\n      dup5\n        /* \"#utility.yul\":773:796   */\n      sub\n        /* \"#utility.yul\":769:801   */\n      slt\n        /* \"#utility.yul\":766:885   */\n      iszero\n      tag_66\n      jumpi\n        /* \"#utility.yul\":804:883   */\n      tag_67\n      tag_41\n      jump\t// in\n    tag_67:\n        /* \"#utility.yul\":766:885   */\n    tag_66:\n        /* \"#utility.yul\":924:925   */\n      0x00\n        /* \"#utility.yul\":949:1002   */\n      tag_68\n        /* \"#utility.yul\":994:1001   */\n      dup5\n        /* \"#utility.yul\":985:991   */\n      dup3\n        /* \"#utility.yul\":974:983   */\n      dup6\n        /* \"#utility.yul\":970:992   */\n      add\n        /* \"#utility.yul\":949:1002   */\n      tag_45\n      jump\t// in\n    tag_68:\n        /* \"#utility.yul\":939:1002   */\n      swap2\n      pop\n        /* \"#utility.yul\":895:1012   */\n      pop\n        /* \"#utility.yul\":690:1019   */\n      swap3\n      swap2\n      pop\n      pop\n      jump\t// out\n        /* \"#utility.yul\":1025:1116   */\n    tag_46:\n        /* \"#utility.yul\":1061:1068   */\n      0x00\n        /* \"#utility.yul\":1101:1109   */\n      0xffffff\n        /* \"#utility.yul\":1094:1099   */\n      dup3\n        /* \"#utility.yul\":1090:1110   */\n      and\n        /* \"#utility.yul\":1079:1110   */\n      swap1\n      pop\n        /* \"#utility.yul\":1025:1116   */\n      swap2\n      swap1\n      pop\n      jump\t// out\n        /* \"#utility.yul\":1122:1242   */\n    tag_47:\n        /* \"#utility.yul\":1194:1217   */\n      tag_71\n        /* \"#utility.yul\":1211:1216   */\n      dup2\n        /* \"#utility.yul\":1194:1217   */\n      tag_46\n      jump\t// in\n    tag_71:\n        /* \"#utility.yul\":1187:1192   */\n      dup2\n        /* \"#utility.yul\":1184:1218   */\n      eq\n        /* \"#utility.yul\":1174:1236   */\n      tag_72\n      jumpi\n        /* \"#utility.yul\":1232:1233   */\n      0x00\n        /* \"#utility.yul\":1229:1230   */\n      dup1\n        /* \"#utility.yul\":1222:1234   */\n      revert\n        /* \"#utility.yul\":1174:1236   */\n    tag_72:\n        /* \"#utility.yul\":1122:1242   */\n      pop\n      jump\t// out\n        /* \"#utility.yul\":1248:1385   */\n    tag_48:\n        /* \"#utility.yul\":1293:1298   */\n      0x00\n        /* \"#utility.yul\":1331:1337   */\n      dup2\n        /* \"#utility.yul\":1318:1338   */\n      calldataload\n        /* \"#utility.yul\":1309:1338   */\n      swap1\n      pop\n        /* \"#utility.yul\":1347:1379   */\n      tag_74\n        /* \"#utility.yul\":1373:1378   */\n      dup2\n        /* \"#utility.yul\":1347:1379   */\n      tag_47\n      jump\t// in\n    tag_74:\n        /* \"#utility.yul\":1248:1385   */\n      swap3\n      swap2\n      pop\n      pop\n      jump\t// out\n        /* \"#utility.yul\":1391:1718   */\n    tag_17:\n        /* \"#utility.yul\":1449:1455   */\n      0x00\n        /* \"#utility.yul\":1498:1500   */\n      0x20\n        /* \"#utility.yul\":1486:1495   */\n      dup3\n        /* \"#utility.yul\":1477:1484   */\n      dup5\n        /* \"#utility.yul\":1473:1496   */\n      sub\n        /* \"#utility.yul\":1469:1501   */\n      slt\n        /* \"#utility.yul\":1466:1585   */\n      iszero\n      tag_76\n      jumpi\n        /* \"#utility.yul\":1504:1583   */\n      tag_77\n      tag_41\n      jump\t// in\n    tag_77:\n        /* \"#utility.yul\":1466:1585   */\n    tag_76:\n        /* \"#utility.yul\":1624:1625   */\n      0x00\n        /* \"#utility.yul\":1649:1701   */\n      tag_78\n        /* \"#utility.yul\":1693:1700   */\n      dup5\n        /* \"#utility.yul\":1684:1690   */\n      dup3\n        /* \"#utility.yul\":1673:1682   */\n      dup6\n        /* \"#utility.yul\":1669:1691   */\n      add\n        /* \"#utility.yul\":1649:1701   */\n      tag_48\n      jump\t// in\n    tag_78:\n        /* \"#utility.yul\":1639:1701   */\n      swap2\n      pop\n        /* \"#utility.yul\":1595:1711   */\n      pop\n        /* \"#utility.yul\":1391:1718   */\n      swap3\n      swap2\n      pop\n      pop\n      jump\t// out\n        /* \"#utility.yul\":1724:1842   */\n    tag_49:\n        /* \"#utility.yul\":1811:1835   */\n      tag_80\n        /* \"#utility.yul\":1829:1834   */\n      dup2\n        /* \"#utility.yul\":1811:1835   */\n      tag_43\n      jump\t// in\n    tag_80:\n        /* \"#utility.yul\":1806:1809   */\n      dup3\n        /* \"#utility.yul\":1799:1836   */\n      mstore\n        /* \"#utility.yul\":1724:1842   */\n      pop\n      pop\n      jump\t// out\n        /* \"#utility.yul\":1848:2070   */\n    tag_22:\n        /* \"#utility.yul\":1941:1945   */\n      0x00\n        /* \"#utility.yul\":1979:1981   */\n      0x20\n        /* \"#utility.yul\":1968:1977   */\n      dup3\n        /* \"#utility.yul\":1964:1982   */\n      add\n        /* \"#utility.yul\":1956:1982   */\n      swap1\n      pop\n        /* \"#utility.yul\":1992:2063   */\n      tag_82\n        /* \"#utility.yul\":2060:2061   */\n      0x00\n        /* \"#utility.yul\":2049:2058   */\n      dup4\n        /* \"#utility.yul\":2045:2062   */\n      add\n        /* \"#utility.yul\":2036:2042   */\n      dup5\n        /* \"#utility.yul\":1992:2063   */\n      tag_49\n      jump\t// in\n    tag_82:\n        /* \"#utility.yul\":1848:2070   */\n      swap3\n      swap2\n      pop\n      pop\n      jump\t// out\n        /* \"#utility.yul\":2076:2196   */\n    tag_50:\n        /* \"#utility.yul\":2113:2120   */\n      0x00\n        /* \"#utility.yul\":2153:2189   */\n      0xffffffffffffffffffffffffffffffffff\n        /* \"#utility.yul\":2146:2151   */\n      dup3\n        /* \"#utility.yul\":2142:2190   */\n      and\n        /* \"#utility.yul\":2131:2190   */\n      swap1\n      pop\n        /* \"#utility.yul\":2076:2196   */\n      swap2\n      swap1\n      pop\n      jump\t// out\n        /* \"#utility.yul\":2202:2324   */\n    tag_51:\n        /* \"#utility.yul\":2275:2299   */\n      tag_85\n        /* \"#utility.yul\":2293:2298   */\n      dup2\n        /* \"#utility.yul\":2275:2299   */\n      tag_50\n      jump\t// in\n    tag_85:\n        /* \"#utility.yul\":2268:2273   */\n      dup2\n        /* \"#utility.yul\":2265:2300   */\n      eq\n        /* \"#utility.yul\":2255:2318   */\n      tag_86\n      jumpi\n        /* \"#utility.yul\":2314:2315   */\n      0x00\n        /* \"#utility.yul\":2311:2312   */\n      dup1\n        /* \"#utility.yul\":2304:2316   */\n      revert\n        /* \"#utility.yul\":2255:2318   */\n    tag_86:\n        /* \"#utility.yul\":2202:2324   */\n      pop\n      jump\t// out\n        /* \"#utility.yul\":2330:2469   */\n    tag_52:\n        /* \"#utility.yul\":2376:2381   */\n      0x00\n        /* \"#utility.yul\":2414:2420   */\n      dup2\n        /* \"#utility.yul\":2401:2421   */\n      calldataload\n        /* \"#utility.yul\":2392:2421   */\n      swap1\n      pop\n        /* \"#utility.yul\":2430:2463   */\n      tag_88\n        /* \"#utility.yul\":2457:2462   */\n      dup2\n        /* \"#utility.yul\":2430:2463   */\n      tag_51\n      jump\t// in\n    tag_88:\n        /* \"#utility.yul\":2330:2469   */\n      swap3\n      swap2\n      pop\n      pop\n      jump\t// out\n        /* \"#utility.yul\":2475:2804   */\n    tag_25:\n        /* \"#utility.yul\":2534:2540   */\n      0x00\n        /* \"#utility.yul\":2583:2585   */\n      0x20\n        /* \"#utility.yul\":2571:2580   */\n      dup3\n        /* \"#utility.yul\":2562:2569   */\n      dup5\n        /* \"#utility.yul\":2558:2581   */\n      sub\n        /* \"#utility.yul\":2554:2586   */\n      slt\n        /* \"#utility.yul\":2551:2670   */\n      iszero\n      tag_90\n      jumpi\n        /* \"#utility.yul\":2589:2668   */\n      tag_91\n      tag_41\n      jump\t// in\n    tag_91:\n        /* \"#utility.yul\":2551:2670   */\n    tag_90:\n        /* \"#utility.yul\":2709:2710   */\n      0x00\n        /* \"#utility.yul\":2734:2787   */\n      tag_92\n        /* \"#utility.yul\":2779:2786   */\n      dup5\n        /* \"#utility.yul\":2770:2776   */\n      dup3\n        /* \"#utility.yul\":2759:2768   */\n      dup6\n        /* \"#utility.yul\":2755:2777   */\n      add\n        /* \"#utility.yul\":2734:2787   */\n      tag_52\n      jump\t// in\n    tag_92:\n        /* \"#utility.yul\":2724:2787   */\n      swap2\n      pop\n        /* \"#utility.yul\":2680:2797   */\n      pop\n        /* \"#utility.yul\":2475:2804   */\n      swap3\n      swap2\n      pop\n      pop\n      jump\t// out\n        /* \"#utility.yul\":2810:2990   */\n    tag_53:\n        /* \"#utility.yul\":2858:2935   */\n      0x4e487b7100000000000000000000000000000000000000000000000000000000\n        /* \"#utility.yul\":2855:2856   */\n      0x00\n        /* \"#utility.yul\":2848:2936   */\n      mstore\n        /* \"#utility.yul\":2955:2959   */\n      0x11\n        /* \"#utility.yul\":2952:2953   */\n      0x04\n        /* \"#utility.yul\":2945:2960   */\n      mstore\n        /* \"#utility.yul\":2979:2983   */\n      0x24\n        /* \"#utility.yul\":2976:2977   */\n      0x00\n        /* \"#utility.yul\":2969:2984   */\n      revert\n        /* \"#utility.yul\":2996:3187   */\n    tag_29:\n        /* \"#utility.yul\":3036:3039   */\n      0x00\n        /* \"#utility.yul\":3055:3075   */\n      tag_95\n        /* \"#utility.yul\":3073:3074   */\n      dup3\n        /* \"#utility.yul\":3055:3075   */\n      tag_43\n      jump\t// in\n    tag_95:\n        /* \"#utility.yul\":3050:3075   */\n      swap2\n      pop\n        /* \"#utility.yul\":3089:3109   */\n      tag_96\n        /* \"#utility.yul\":3107:3108   */\n      dup4\n        /* \"#utility.yul\":3089:3109   */\n      tag_43\n      jump\t// in\n    tag_96:\n        /* \"#utility.yul\":3084:3109   */\n      swap3\n      pop\n        /* \"#utility.yul\":3132:3133   */\n      dup3\n        /* \"#utility.yul\":3129:3130   */\n      dup3\n        /* \"#utility.yul\":3125:3134   */\n      add\n        /* \"#utility.yul\":3118:3134   */\n      swap1\n      pop\n        /* \"#utility.yul\":3153:3156   */\n      dup1\n        /* \"#utility.yul\":3150:3151   */\n      dup3\n        /* \"#utility.yul\":3147:3157   */\n      gt\n        /* \"#utility.yul\":3144:3180   */\n      iszero\n      tag_97\n      jumpi\n        /* \"#utility.yul\":3160:3178   */\n      tag_98\n      tag_53\n      jump\t// in\n    tag_98:\n        /* \"#utility.yul\":3144:3180   */\n    tag_97:\n        /* \"#utility.yul\":2996:3187   */\n      swap3\n      swap2\n      pop\n      pop\n      jump\t// out\n        /* \"#utility.yul\":3193:3373   */\n    tag_54:\n        /* \"#utility.yul\":3241:3318   */\n      0x4e487b7100000000000000000000000000000000000000000000000000000000\n        /* \"#utility.yul\":3238:3239   */\n      0x00\n        /* \"#utility.yul\":3231:3319   */\n      mstore\n        /* \"#utility.yul\":3338:3342   */\n      0x12\n        /* \"#utility.yul\":3335:3336   */\n      0x04\n        /* \"#utility.yul\":3328:3343   */\n      mstore\n        /* \"#utility.yul\":3362:3366   */\n      0x24\n        /* \"#utility.yul\":3359:3360   */\n      0x00\n        /* \"#utility.yul\":3352:3367   */\n      revert\n        /* \"#utility.yul\":3379:3564   */\n    tag_32:\n        /* \"#utility.yul\":3419:3420   */\n      0x00\n        /* \"#utility.yul\":3436:3456   */\n      tag_101\n        /* \"#utility.yul\":3454:3455   */\n      dup3\n        /* \"#utility.yul\":3436:3456   */\n      tag_43\n      jump\t// in\n    tag_101:\n        /* \"#utility.yul\":3431:3456   */\n      swap2\n      pop\n        /* \"#utility.yul\":3470:3490   */\n      tag_102\n        /* \"#utility.yul\":3488:3489   */\n      dup4\n        /* \"#utility.yul\":3470:3490   */\n      tag_43\n      jump\t// in\n    tag_102:\n        /* \"#utility.yul\":3465:3490   */\n      swap3\n      pop\n        /* \"#utility.yul\":3509:3510   */\n      dup3\n        /* \"#utility.yul\":3499:3534   */\n      tag_103\n      jumpi\n        /* \"#utility.yul\":3514:3532   */\n      tag_104\n      tag_54\n      jump\t// in\n    tag_104:\n        /* \"#utility.yul\":3499:3534   */\n    tag_103:\n        /* \"#utility.yul\":3556:3557   */\n      dup3\n        /* \"#utility.yul\":3553:3554   */\n      dup3\n        /* \"#utility.yul\":3549:3558   */\n      div\n        /* \"#utility.yul\":3544:3558   */\n      swap1\n      pop\n        /* \"#utility.yul\":3379:3564   */\n      swap3\n      swap2\n      pop\n      pop\n      jump\t// out\n        /* \"#utility.yul\":3570:3764   */\n    tag_35:\n        /* \"#utility.yul\":3610:3614   */\n      0x00\n        /* \"#utility.yul\":3630:3650   */\n      tag_106\n        /* \"#utility.yul\":3648:3649   */\n      dup3\n        /* \"#utility.yul\":3630:3650   */\n      tag_43\n      jump\t// in\n    tag_106:\n        /* \"#utility.yul\":3625:3650   */\n      swap2\n      pop\n        /* \"#utility.yul\":3664:3684   */\n      tag_107\n        /* \"#utility.yul\":3682:3683   */\n      dup4\n        /* \"#utility.yul\":3664:3684   */\n      tag_43\n      jump\t// in\n    tag_107:\n        /* \"#utility.yul\":3659:3684   */\n      swap3\n      pop\n        /* \"#utility.yul\":3708:3709   */\n      dup3\n        /* \"#utility.yul\":3705:3706   */\n      dup3\n        /* \"#utility.yul\":3701:3710   */\n      sub\n        /* \"#utility.yul\":3693:3710   */\n      swap1\n      pop\n        /* \"#utility.yul\":3732:3733   */\n      dup2\n        /* \"#utility.yul\":3726:3730   */\n      dup2\n        /* \"#utility.yul\":3723:3734   */\n      gt\n        /* \"#utility.yul\":3720:3757   */\n      iszero\n      tag_108\n      jumpi\n        /* \"#utility.yul\":3737:3755   */\n      tag_109\n      tag_53\n      jump\t// in\n    tag_109:\n        /* \"#utility.yul\":3720:3757   */\n    tag_108:\n        /* \"#utility.yul\":3570:3764   */\n      swap3\n      swap2\n      pop\n      pop\n      jump\t// out\n        /* \"#utility.yul\":3770:4180   */\n    tag_39:\n        /* \"#utility.yul\":3810:3817   */\n      0x00\n        /* \"#utility.yul\":3833:3853   */\n      tag_111\n        /* \"#utility.yul\":3851:3852   */\n      dup3\n        /* \"#utility.yul\":3833:3853   */\n      tag_43\n      jump\t// in\n    tag_111:\n        /* \"#utility.yul\":3828:3853   */\n      swap2\n      pop\n        /* \"#utility.yul\":3867:3887   */\n      tag_112\n        /* \"#utility.yul\":3885:3886   */\n      dup4\n        /* \"#utility.yul\":3867:3887   */\n      tag_43\n      jump\t// in\n    tag_112:\n        /* \"#utility.yul\":3862:3887   */\n      swap3\n      pop\n        /* \"#utility.yul\":3922:3923   */\n      dup3\n        /* \"#utility.yul\":3919:3920   */\n      dup3\n        /* \"#utility.yul\":3915:3924   */\n      mul\n        /* \"#utility.yul\":3944:3974   */\n      tag_113\n        /* \"#utility.yul\":3962:3973   */\n      dup2\n        /* \"#utility.yul\":3944:3974   */\n      tag_43\n      jump\t// in\n    tag_113:\n        /* \"#utility.yul\":3933:3974   */\n      swap2\n      pop\n        /* \"#utility.yul\":4123:4124   */\n      dup3\n        /* \"#utility.yul\":4114:4121   */\n      dup3\n        /* \"#utility.yul\":4110:4125   */\n      div\n        /* \"#utility.yul\":4107:4108   */\n      dup5\n        /* \"#utility.yul\":4104:4126   */\n      eq\n        /* \"#utility.yul\":4084:4085   */\n      dup4\n        /* \"#utility.yul\":4077:4086   */\n      iszero\n        /* \"#utility.yul\":4057:4140   */\n      or\n        /* \"#utility.yul\":4034:4173   */\n      tag_114\n      jumpi\n        /* \"#utility.yul\":4153:4171   */\n      tag_115\n      tag_53\n      jump\t// in\n    tag_115:\n        /* \"#utility.yul\":4034:4173   */\n    tag_114:\n        /* \"#utility.yul\":3818:4180   */\n      pop\n        /* \"#utility.yul\":3770:4180   */\n      swap3\n      swap2\n      pop\n      pop\n      jump\t// out\n\n    auxdata: 0xa26469706673582212200e74d7f775ca9b3433403d70320a53c483a1b22b5ba8e676e0d6d169b53bc98464736f6c634300081a0033\n}\n",
				"bytecode": {
					"linkReferences": {},
					"object": "60806040525f80553480156011575f80fd5b506104348061001f5f395ff3fe608060405234801561000f575f80fd5b5060043610610055575f3560e01c80631003e2d2146100595780633e823f7914610075578063512581ba146100915780636d4ce63c146100ad5780637a6f43f5146100cb575b5f80fd5b610073600480360381019061006e91906101a6565b6100e7565b005b61008f600480360381019061008a91906101a6565b610101565b005b6100ab60048036038101906100a69190610209565b61011b565b005b6100b561013a565b6040516100c29190610243565b60405180910390f35b6100e560048036038101906100e091906102a2565b610142565b005b805f808282546100f791906102fa565b9250508190555050565b805f80828254610111919061035a565b9250508190555050565b8062ffffff165f80828254610130919061038a565b9250508190555050565b5f8054905090565b8070ffffffffffffffffffffffffffffffffff165f8082825461016591906103bd565b9250508190555050565b5f80fd5b5f819050919050565b61018581610173565b811461018f575f80fd5b50565b5f813590506101a08161017c565b92915050565b5f602082840312156101bb576101ba61016f565b5b5f6101c884828501610192565b91505092915050565b5f62ffffff82169050919050565b6101e8816101d1565b81146101f2575f80fd5b50565b5f81359050610203816101df565b92915050565b5f6020828403121561021e5761021d61016f565b5b5f61022b848285016101f5565b91505092915050565b61023d81610173565b82525050565b5f6020820190506102565f830184610234565b92915050565b5f70ffffffffffffffffffffffffffffffffff82169050919050565b6102818161025c565b811461028b575f80fd5b50565b5f8135905061029c81610278565b92915050565b5f602082840312156102b7576102b661016f565b5b5f6102c48482850161028e565b91505092915050565b7f4e487b71000000000000000000000000000000000000000000000000000000005f52601160045260245ffd5b5f61030482610173565b915061030f83610173565b9250828201905080821115610327576103266102cd565b5b92915050565b7f4e487b71000000000000000000000000000000000000000000000000000000005f52601260045260245ffd5b5f61036482610173565b915061036f83610173565b92508261037f5761037e61032d565b5b828204905092915050565b5f61039482610173565b915061039f83610173565b92508282039050818111156103b7576103b66102cd565b5b92915050565b5f6103c782610173565b91506103d283610173565b92508282026103e081610173565b915082820484148315176103f7576103f66102cd565b5b509291505056fea26469706673582212200e74d7f775ca9b3433403d70320a53c483a1b22b5ba8e676e0d6d169b53bc98464736f6c634300081a0033",
					"opcodes": "PUSH1 0x80 PUSH1 0x40 MSTORE PUSH0 DUP1 SSTORE CALLVALUE DUP1 ISZERO PUSH1 0x11 JUMPI PUSH0 DUP1 REVERT JUMPDEST POP PUSH2 0x434 DUP1 PUSH2 0x1F PUSH0 CODECOPY PUSH0 RETURN INVALID PUSH1 0x80 PUSH1 0x40 MSTORE CALLVALUE DUP1 ISZERO PUSH2 0xF JUMPI PUSH0 DUP1 REVERT JUMPDEST POP PUSH1 0x4 CALLDATASIZE LT PUSH2 0x55 JUMPI PUSH0 CALLDATALOAD PUSH1 0xE0 SHR DUP1 PUSH4 0x1003E2D2 EQ PUSH2 0x59 JUMPI DUP1 PUSH4 0x3E823F79 EQ PUSH2 0x75 JUMPI DUP1 PUSH4 0x512581BA EQ PUSH2 0x91 JUMPI DUP1 PUSH4 0x6D4CE63C EQ PUSH2 0xAD JUMPI DUP1 PUSH4 0x7A6F43F5 EQ PUSH2 0xCB JUMPI JUMPDEST PUSH0 DUP1 REVERT JUMPDEST PUSH2 0x73 PUSH1 0x4 DUP1 CALLDATASIZE SUB DUP2 ADD SWAP1 PUSH2 0x6E SWAP2 SWAP1 PUSH2 0x1A6 JUMP JUMPDEST PUSH2 0xE7 JUMP JUMPDEST STOP JUMPDEST PUSH2 0x8F PUSH1 0x4 DUP1 CALLDATASIZE SUB DUP2 ADD SWAP1 PUSH2 0x8A SWAP2 SWAP1 PUSH2 0x1A6 JUMP JUMPDEST PUSH2 0x101 JUMP JUMPDEST STOP JUMPDEST PUSH2 0xAB PUSH1 0x4 DUP1 CALLDATASIZE SUB DUP2 ADD SWAP1 PUSH2 0xA6 SWAP2 SWAP1 PUSH2 0x209 JUMP JUMPDEST PUSH2 0x11B JUMP JUMPDEST STOP JUMPDEST PUSH2 0xB5 PUSH2 0x13A JUMP JUMPDEST PUSH1 0x40 MLOAD PUSH2 0xC2 SWAP2 SWAP1 PUSH2 0x243 JUMP JUMPDEST PUSH1 0x40 MLOAD DUP1 SWAP2 SUB SWAP1 RETURN JUMPDEST PUSH2 0xE5 PUSH1 0x4 DUP1 CALLDATASIZE SUB DUP2 ADD SWAP1 PUSH2 0xE0 SWAP2 SWAP1 PUSH2 0x2A2 JUMP JUMPDEST PUSH2 0x142 JUMP JUMPDEST STOP JUMPDEST DUP1 PUSH0 DUP1 DUP3 DUP3 SLOAD PUSH2 0xF7 SWAP2 SWAP1 PUSH2 0x2FA JUMP JUMPDEST SWAP3 POP POP DUP2 SWAP1 SSTORE POP POP JUMP JUMPDEST DUP1 PUSH0 DUP1 DUP3 DUP3 SLOAD PUSH2 0x111 SWAP2 SWAP1 PUSH2 0x35A JUMP JUMPDEST SWAP3 POP POP DUP2 SWAP1 SSTORE POP POP JUMP JUMPDEST DUP1 PUSH3 0xFFFFFF AND PUSH0 DUP1 DUP3 DUP3 SLOAD PUSH2 0x130 SWAP2 SWAP1 PUSH2 0x38A JUMP JUMPDEST SWAP3 POP POP DUP2 SWAP1 SSTORE POP POP JUMP JUMPDEST PUSH0 DUP1 SLOAD SWAP1 POP SWAP1 JUMP JUMPDEST DUP1 PUSH17 0xFFFFFFFFFFFFFFFFFFFFFFFFFFFFFFFFFF AND PUSH0 DUP1 DUP3 DUP3 SLOAD PUSH2 0x165 SWAP2 SWAP1 PUSH2 0x3BD JUMP JUMPDEST SWAP3 POP POP DUP2 SWAP1 SSTORE POP POP JUMP JUMPDEST PUSH0 DUP1 REVERT JUMPDEST PUSH0 DUP2 SWAP1 POP SWAP2 SWAP1 POP JUMP JUMPDEST PUSH2 0x185 DUP2 PUSH2 0x173 JUMP JUMPDEST DUP2 EQ PUSH2 0x18F JUMPI PUSH0 DUP1 REVERT JUMPDEST POP JUMP JUMPDEST PUSH0 DUP2 CALLDATALOAD SWAP1 POP PUSH2 0x1A0 DUP2 PUSH2 0x17C JUMP JUMPDEST SWAP3 SWAP2 POP POP JUMP JUMPDEST PUSH0 PUSH1 0x20 DUP3 DUP5 SUB SLT ISZERO PUSH2 0x1BB JUMPI PUSH2 0x1BA PUSH2 0x16F JUMP JUMPDEST JUMPDEST PUSH0 PUSH2 0x1C8 DUP5 DUP3 DUP6 ADD PUSH2 0x192 JUMP JUMPDEST SWAP2 POP POP SWAP3 SWAP2 POP POP JUMP JUMPDEST PUSH0 PUSH3 0xFFFFFF DUP3 AND SWAP1 POP SWAP2 SWAP1 POP JUMP JUMPDEST PUSH2 0x1E8 DUP2 PUSH2 0x1D1 JUMP JUMPDEST DUP2 EQ PUSH2 0x1F2 JUMPI PUSH0 DUP1 REVERT JUMPDEST POP JUMP JUMPDEST PUSH0 DUP2 CALLDATALOAD SWAP1 POP PUSH2 0x203 DUP2 PUSH2 0x1DF JUMP JUMPDEST SWAP3 SWAP2 POP POP JUMP JUMPDEST PUSH0 PUSH1 0x20 DUP3 DUP5 SUB SLT ISZERO PUSH2 0x21E JUMPI PUSH2 0x21D PUSH2 0x16F JUMP JUMPDEST JUMPDEST PUSH0 PUSH2 0x22B DUP5 DUP3 DUP6 ADD PUSH2 0x1F5 JUMP JUMPDEST SWAP2 POP POP SWAP3 SWAP2 POP POP JUMP JUMPDEST PUSH2 0x23D DUP2 PUSH2 0x173 JUMP JUMPDEST DUP3 MSTORE POP POP JUMP JUMPDEST PUSH0 PUSH1 0x20 DUP3 ADD SWAP1 POP PUSH2 0x256 PUSH0 DUP4 ADD DUP5 PUSH2 0x234 JUMP JUMPDEST SWAP3 SWAP2 POP POP JUMP JUMPDEST PUSH0 PUSH17 0xFFFFFFFFFFFFFFFFFFFFFFFFFFFFFFFFFF DUP3 AND SWAP1 POP SWAP2 SWAP1 POP JUMP JUMPDEST PUSH2 0x281 DUP2 PUSH2 0x25C JUMP JUMPDEST DUP2 EQ PUSH2 0x28B JUMPI PUSH0 DUP1 REVERT JUMPDEST POP JUMP JUMPDEST PUSH0 DUP2 CALLDATALOAD SWAP1 POP PUSH2 0x29C DUP2 PUSH2 0x278 JUMP JUMPDEST SWAP3 SWAP2 POP POP JUMP JUMPDEST PUSH0 PUSH1 0x20 DUP3 DUP5 SUB SLT ISZERO PUSH2 0x2B7 JUMPI PUSH2 0x2B6 PUSH2 0x16F JUMP JUMPDEST JUMPDEST PUSH0 PUSH2 0x2C4 DUP5 DUP3 DUP6 ADD PUSH2 0x28E JUMP JUMPDEST SWAP2 POP POP SWAP3 SWAP2 POP POP JUMP JUMPDEST PUSH32 0x4E487B7100000000000000000000000000000000000000000000000000000000 PUSH0 MSTORE PUSH1 0x11 PUSH1 0x4 MSTORE PUSH1 0x24 PUSH0 REVERT JUMPDEST PUSH0 PUSH2 0x304 DUP3 PUSH2 0x173 JUMP JUMPDEST SWAP2 POP PUSH2 0x30F DUP4 PUSH2 0x173 JUMP JUMPDEST SWAP3 POP DUP3 DUP3 ADD SWAP1 POP DUP1 DUP3 GT ISZERO PUSH2 0x327 JUMPI PUSH2 0x326 PUSH2 0x2CD JUMP JUMPDEST JUMPDEST SWAP3 SWAP2 POP POP JUMP JUMPDEST PUSH32 0x4E487B7100000000000000000000000000000000000000000000000000000000 PUSH0 MSTORE PUSH1 0x12 PUSH1 0x4 MSTORE PUSH1 0x24 PUSH0 REVERT JUMPDEST PUSH0 PUSH2 0x364 DUP3 PUSH2 0x173 JUMP JUMPDEST SWAP2 POP PUSH2 0x36F DUP4 PUSH2 0x173 JUMP JUMPDEST SWAP3 POP DUP3 PUSH2 0x37F JUMPI PUSH2 0x37E PUSH2 0x32D JUMP JUMPDEST JUMPDEST DUP3 DUP3 DIV SWAP1 POP SWAP3 SWAP2 POP POP JUMP JUMPDEST PUSH0 PUSH2 0x394 DUP3 PUSH2 0x173 JUMP JUMPDEST SWAP2 POP PUSH2 0x39F DUP4 PUSH2 0x173 JUMP JUMPDEST SWAP3 POP DUP3 DUP3 SUB SWAP1 POP DUP2 DUP2 GT ISZERO PUSH2 0x3B7 JUMPI PUSH2 0x3B6 PUSH2 0x2CD JUMP JUMPDEST JUMPDEST SWAP3 SWAP2 POP POP JUMP JUMPDEST PUSH0 PUSH2 0x3C7 DUP3 PUSH2 0x173 JUMP JUMPDEST SWAP2 POP PUSH2 0x3D2 DUP4 PUSH2 0x173 JUMP JUMPDEST SWAP3 POP DUP3 DUP3 MUL PUSH2 0x3E0 DUP2 PUSH2 0x173 JUMP JUMPDEST SWAP2 POP DUP3 DUP3 DIV DUP5 EQ DUP4 ISZERO OR PUSH2 0x3F7 JUMPI PUSH2 0x3F6 PUSH2 0x2CD JUMP JUMPDEST JUMPDEST POP SWAP3 SWAP2 POP POP JUMP INVALID LOG2 PUSH5 0x6970667358 0x22 SLT KECCAK256 0xE PUSH21 0xD7F775CA9B3433403D70320A53C483A1B22B5BA8E6 PUSH23 0xE0D6D169B53BC98464736F6C634300081A003300000000 "
				},
				"gasEstimates": {
					"creation": {
						"codeDepositCost": "215200",
						"executionCost": "5260",
						"totalCost": "220460"
					},
					"external": {
						"add(uint256)": "infinite",
						"divide(uint256)": "infinite",
						"get()": "2476",
						"multiply(uint136)": "infinite",
						"subtract(uint24)": "infinite"
					}
				},
				"methodIdentifiers": {
					"add(uint256)": "1003e2d2",
					"divide(uint256)": "3e823f79",
					"get()": "6d4ce63c",
					"multiply(uint136)": "7a6f43f5",
					"subtract(uint24)": "512581ba"
				}
			},
			"storageLayout": {
				"storage": [
					{
						"astId": 4,
						"contract": "My Journey/01.sol:Calculator",
						"label": "result",
						"offset": 0,
						"slot": "0",
						"type": "t_uint256"
					}
				],
				"types": {
					"t_uint256": {
						"encoding": "inplace",
						"label": "uint256",
						"numberOfBytes": "32"
					}
				}
			},
			"userdoc": {
				"kind": "user",
				"methods": {},
				"version": 1
			}
		}
	}
}