{
	"Blockchain Basics/Assignment_1.sol": {
		"Assignment1": {
			"abi": [
				{
					"inputs": [],
					"name": "arithmetic",
					"outputs": [
						{
							"internalType": "uint256",
							"name": "",
							"type": "uint256"
						},
						{
							"internalType": "uint256",
							"name": "",
							"type": "uint256"
						},
						{
							"internalType": "uint256",
							"name": "",
							"type": "uint256"
						},
						{
							"internalType": "uint256",
							"name": "",
							"type": "uint256"
						},
						{
							"internalType": "uint256",
							"name": "",
							"type": "uint256"
						}
					],
					"stateMutability": "view",
					"type": "function"
				},
				{
					"inputs": [],
					"name": "logical",
					"outputs": [
						{
							"internalType": "bool",
							"name": "",
							"type": "bool"
						},
						{
							"internalType": "bool",
							"name": "",
							"type": "bool"
						},
						{
							"internalType": "bool",
							"name": "",
							"type": "bool"
						}
					],
					"stateMutability": "view",
					"type": "function"
				},
				{
					"inputs": [],
					"name": "publicVar",
					"outputs": [
						{
							"internalType": "uint256",
							"name": "",
							"type": "uint256"
						}
					],
					"stateMutability": "view",
					"type": "function"
				},
				{
					"inputs": [],
					"name": "relational",
					"outputs": [
						{
							"internalType": "bool",
							"name": "",
							"type": "bool"
						},
						{
							"internalType": "bool",
							"name": "",
							"type": "bool"
						},
						{
							"internalType": "bool",
							"name": "",
							"type": "bool"
						},
						{
							"internalType": "bool",
							"name": "",
							"type": "bool"
						},
						{
							"internalType": "bool",
							"name": "",
							"type": "bool"
						}
					],
					"stateMutability": "view",
					"type": "function"
				}
			],
			"devdoc": {
				"kind": "dev",
				"methods": {},
				"version": 1
			},
			"evm": {
				"assembly": "    /* \"Blockchain Basics/Assignment_1.sol\":64:1179  contract Assignment1 {... */\n  mstore(0x40, 0x80)\n    /* \"Blockchain Basics/Assignment_1.sol\":116:118  10 */\n  0x0a\n    /* \"Blockchain Basics/Assignment_1.sol\":92:118  uint public publicVar = 10 */\n  0x00\n  sstore\n    /* \"Blockchain Basics/Assignment_1.sol\":151:152  6 */\n  0x06\n    /* \"Blockchain Basics/Assignment_1.sol\":125:152  uint private privateVar = 6 */\n  0x01\n  sstore\n    /* \"Blockchain Basics/Assignment_1.sol\":187:188  3 */\n  0x03\n    /* \"Blockchain Basics/Assignment_1.sol\":159:188  uint internal internalVar = 3 */\n  0x02\n  sstore\n    /* \"Blockchain Basics/Assignment_1.sol\":64:1179  contract Assignment1 {... */\n  callvalue\n  dup1\n  iszero\n  tag_1\n  jumpi\n  0x00\n  dup1\n  revert\ntag_1:\n  pop\n  dataSize(sub_0)\n  dup1\n  dataOffset(sub_0)\n  0x00\n  codecopy\n  0x00\n  return\nstop\n\nsub_0: assembly {\n        /* \"Blockchain Basics/Assignment_1.sol\":64:1179  contract Assignment1 {... */\n      mstore(0x40, 0x80)\n      callvalue\n      dup1\n      iszero\n      tag_1\n      jumpi\n      0x00\n      dup1\n      revert\n    tag_1:\n      pop\n      jumpi(tag_2, lt(calldatasize, 0x04))\n      shr(0xe0, calldataload(0x00))\n      dup1\n      0x1151fad8\n      eq\n      tag_3\n      jumpi\n      dup1\n      0x46d46df2\n      eq\n      tag_4\n      jumpi\n      dup1\n      0x93daa367\n      eq\n      tag_5\n      jumpi\n      dup1\n      0x980a67fd\n      eq\n      tag_6\n      jumpi\n    tag_2:\n      0x00\n      dup1\n      revert\n        /* \"Blockchain Basics/Assignment_1.sol\":92:118  uint public publicVar = 10 */\n    tag_3:\n      tag_7\n      tag_8\n      jump\t// in\n    tag_7:\n      mload(0x40)\n      tag_9\n      swap2\n      swap1\n      tag_10\n      jump\t// in\n    tag_9:\n      mload(0x40)\n      dup1\n      swap2\n      sub\n      swap1\n      return\n        /* \"Blockchain Basics/Assignment_1.sol\":518:921  function relational() public view returns (bool, bool, bool, bool, bool) {... */\n    tag_4:\n      tag_11\n      tag_12\n      jump\t// in\n    tag_11:\n      mload(0x40)\n      tag_13\n      swap6\n      swap5\n      swap4\n      swap3\n      swap2\n      swap1\n      tag_14\n      jump\t// in\n    tag_13:\n      mload(0x40)\n      dup1\n      swap2\n      sub\n      swap1\n      return\n        /* \"Blockchain Basics/Assignment_1.sol\":929:1176  function logical() public  view returns (bool, bool, bool) {... */\n    tag_5:\n      tag_15\n      tag_16\n      jump\t// in\n    tag_15:\n      mload(0x40)\n      tag_17\n      swap4\n      swap3\n      swap2\n      swap1\n      tag_18\n      jump\t// in\n    tag_17:\n      mload(0x40)\n      dup1\n      swap2\n      sub\n      swap1\n      return\n        /* \"Blockchain Basics/Assignment_1.sol\":197:510  function arithmetic() public view returns (uint, uint, uint, uint, uint) {... */\n    tag_6:\n      tag_19\n      tag_20\n      jump\t// in\n    tag_19:\n      mload(0x40)\n      tag_21\n      swap6\n      swap5\n      swap4\n      swap3\n      swap2\n      swap1\n      tag_22\n      jump\t// in\n    tag_21:\n      mload(0x40)\n      dup1\n      swap2\n      sub\n      swap1\n      return\n        /* \"Blockchain Basics/Assignment_1.sol\":92:118  uint public publicVar = 10 */\n    tag_8:\n      sload(0x00)\n      dup2\n      jump\t// out\n        /* \"Blockchain Basics/Assignment_1.sol\":518:921  function relational() public view returns (bool, bool, bool, bool, bool) {... */\n    tag_12:\n        /* \"Blockchain Basics/Assignment_1.sol\":561:565  bool */\n      0x00\n        /* \"Blockchain Basics/Assignment_1.sol\":567:571  bool */\n      dup1\n        /* \"Blockchain Basics/Assignment_1.sol\":573:577  bool */\n      0x00\n        /* \"Blockchain Basics/Assignment_1.sol\":579:583  bool */\n      dup1\n        /* \"Blockchain Basics/Assignment_1.sol\":585:589  bool */\n      0x00\n        /* \"Blockchain Basics/Assignment_1.sol\":602:612  bool equal */\n      dup1\n        /* \"Blockchain Basics/Assignment_1.sol\":629:638  publicVar */\n      sload(0x00)\n        /* \"Blockchain Basics/Assignment_1.sol\":615:625  privateVar */\n      sload(0x01)\n        /* \"Blockchain Basics/Assignment_1.sol\":615:638  privateVar == publicVar */\n      eq\n        /* \"Blockchain Basics/Assignment_1.sol\":602:638  bool equal = privateVar == publicVar */\n      swap1\n      pop\n        /* \"Blockchain Basics/Assignment_1.sol\":649:661  bool unequal */\n      0x00\n        /* \"Blockchain Basics/Assignment_1.sol\":678:687  publicVar */\n      dup1\n      sload\n        /* \"Blockchain Basics/Assignment_1.sol\":664:674  privateVar */\n      sload(0x01)\n        /* \"Blockchain Basics/Assignment_1.sol\":664:687  privateVar != publicVar */\n      eq\n      iszero\n        /* \"Blockchain Basics/Assignment_1.sol\":649:687  bool unequal = privateVar != publicVar */\n      swap1\n      pop\n        /* \"Blockchain Basics/Assignment_1.sol\":698:710  bool greater */\n      0x00\n        /* \"Blockchain Basics/Assignment_1.sol\":726:735  publicVar */\n      dup1\n      sload\n        /* \"Blockchain Basics/Assignment_1.sol\":713:723  privateVar */\n      sload(0x01)\n        /* \"Blockchain Basics/Assignment_1.sol\":713:735  privateVar > publicVar */\n      gt\n        /* \"Blockchain Basics/Assignment_1.sol\":698:735  bool greater = privateVar > publicVar */\n      swap1\n      pop\n        /* \"Blockchain Basics/Assignment_1.sol\":746:758  bool smaller */\n      0x00\n        /* \"Blockchain Basics/Assignment_1.sol\":774:783  publicVar */\n      dup1\n      sload\n        /* \"Blockchain Basics/Assignment_1.sol\":761:771  privateVar */\n      sload(0x01)\n        /* \"Blockchain Basics/Assignment_1.sol\":761:783  privateVar < publicVar */\n      lt\n        /* \"Blockchain Basics/Assignment_1.sol\":746:783  bool smaller = privateVar < publicVar */\n      swap1\n      pop\n        /* \"Blockchain Basics/Assignment_1.sol\":794:811  bool greaterEqual */\n      0x00\n        /* \"Blockchain Basics/Assignment_1.sol\":828:837  publicVar */\n      dup1\n      sload\n        /* \"Blockchain Basics/Assignment_1.sol\":814:824  privateVar */\n      sload(0x01)\n        /* \"Blockchain Basics/Assignment_1.sol\":814:837  privateVar >= publicVar */\n      lt\n      iszero\n        /* \"Blockchain Basics/Assignment_1.sol\":794:837  bool greaterEqual = privateVar >= publicVar */\n      swap1\n      pop\n        /* \"Blockchain Basics/Assignment_1.sol\":866:871  equal */\n      dup5\n        /* \"Blockchain Basics/Assignment_1.sol\":873:880  unequal */\n      dup5\n        /* \"Blockchain Basics/Assignment_1.sol\":882:889  greater */\n      dup5\n        /* \"Blockchain Basics/Assignment_1.sol\":891:898  smaller */\n      dup5\n        /* \"Blockchain Basics/Assignment_1.sol\":900:912  greaterEqual */\n      dup5\n        /* \"Blockchain Basics/Assignment_1.sol\":858:913  return (equal, unequal, greater, smaller, greaterEqual) */\n      swap10\n      pop\n      swap10\n      pop\n      swap10\n      pop\n      swap10\n      pop\n      swap10\n      pop\n      pop\n      pop\n      pop\n      pop\n      pop\n        /* \"Blockchain Basics/Assignment_1.sol\":518:921  function relational() public view returns (bool, bool, bool, bool, bool) {... */\n      swap1\n      swap2\n      swap3\n      swap4\n      swap5\n      jump\t// out\n        /* \"Blockchain Basics/Assignment_1.sol\":929:1176  function logical() public  view returns (bool, bool, bool) {... */\n    tag_16:\n        /* \"Blockchain Basics/Assignment_1.sol\":970:974  bool */\n      0x00\n        /* \"Blockchain Basics/Assignment_1.sol\":976:980  bool */\n      dup1\n        /* \"Blockchain Basics/Assignment_1.sol\":982:986  bool */\n      0x00\n        /* \"Blockchain Basics/Assignment_1.sol\":999:1005  bool a */\n      dup1\n        /* \"Blockchain Basics/Assignment_1.sol\":1020:1021  5 */\n      0x05\n        /* \"Blockchain Basics/Assignment_1.sol\":1008:1017  publicVar */\n      sload(0x00)\n        /* \"Blockchain Basics/Assignment_1.sol\":1008:1021  publicVar > 5 */\n      gt\n        /* \"Blockchain Basics/Assignment_1.sol\":999:1021  bool a = publicVar > 5 */\n      swap1\n      pop\n        /* \"Blockchain Basics/Assignment_1.sol\":1032:1038  bool b */\n      0x00\n        /* \"Blockchain Basics/Assignment_1.sol\":1054:1055  5 */\n      0x05\n        /* \"Blockchain Basics/Assignment_1.sol\":1041:1051  privateVar */\n      sload(0x01)\n        /* \"Blockchain Basics/Assignment_1.sol\":1041:1055  privateVar < 5 */\n      lt\n        /* \"Blockchain Basics/Assignment_1.sol\":1032:1055  bool b = privateVar < 5 */\n      swap1\n      pop\n        /* \"Blockchain Basics/Assignment_1.sol\":1066:1074  bool and */\n      0x00\n        /* \"Blockchain Basics/Assignment_1.sol\":1077:1078  a */\n      dup3\n        /* \"Blockchain Basics/Assignment_1.sol\":1077:1083  a && b */\n      dup1\n      iszero\n      tag_25\n      jumpi\n      pop\n        /* \"Blockchain Basics/Assignment_1.sol\":1082:1083  b */\n      dup2\n        /* \"Blockchain Basics/Assignment_1.sol\":1077:1083  a && b */\n    tag_25:\n        /* \"Blockchain Basics/Assignment_1.sol\":1066:1083  bool and = a && b */\n      swap1\n      pop\n        /* \"Blockchain Basics/Assignment_1.sol\":1094:1101  bool or */\n      0x00\n        /* \"Blockchain Basics/Assignment_1.sol\":1104:1105  a */\n      dup4\n        /* \"Blockchain Basics/Assignment_1.sol\":1104:1110  a || b */\n      dup1\n      tag_26\n      jumpi\n      pop\n        /* \"Blockchain Basics/Assignment_1.sol\":1109:1110  b */\n      dup3\n        /* \"Blockchain Basics/Assignment_1.sol\":1104:1110  a || b */\n    tag_26:\n        /* \"Blockchain Basics/Assignment_1.sol\":1094:1110  bool or = a || b */\n      swap1\n      pop\n        /* \"Blockchain Basics/Assignment_1.sol\":1121:1129  bool not */\n      0x00\n        /* \"Blockchain Basics/Assignment_1.sol\":1133:1134  a */\n      dup5\n        /* \"Blockchain Basics/Assignment_1.sol\":1132:1134  !a */\n      iszero\n        /* \"Blockchain Basics/Assignment_1.sol\":1121:1134  bool not = !a */\n      swap1\n      pop\n        /* \"Blockchain Basics/Assignment_1.sol\":1155:1158  and */\n      dup3\n        /* \"Blockchain Basics/Assignment_1.sol\":1160:1162  or */\n      dup3\n        /* \"Blockchain Basics/Assignment_1.sol\":1164:1167  not */\n      dup3\n        /* \"Blockchain Basics/Assignment_1.sol\":1147:1168  return (and, or, not) */\n      swap8\n      pop\n      swap8\n      pop\n      swap8\n      pop\n      pop\n      pop\n      pop\n      pop\n      pop\n        /* \"Blockchain Basics/Assignment_1.sol\":929:1176  function logical() public  view returns (bool, bool, bool) {... */\n      swap1\n      swap2\n      swap3\n      jump\t// out\n        /* \"Blockchain Basics/Assignment_1.sol\":197:510  function arithmetic() public view returns (uint, uint, uint, uint, uint) {... */\n    tag_20:\n        /* \"Blockchain Basics/Assignment_1.sol\":240:244  uint */\n      0x00\n        /* \"Blockchain Basics/Assignment_1.sol\":246:250  uint */\n      dup1\n        /* \"Blockchain Basics/Assignment_1.sol\":252:256  uint */\n      0x00\n        /* \"Blockchain Basics/Assignment_1.sol\":258:262  uint */\n      dup1\n        /* \"Blockchain Basics/Assignment_1.sol\":264:268  uint */\n      0x00\n        /* \"Blockchain Basics/Assignment_1.sol\":281:289  uint add */\n      dup1\n        /* \"Blockchain Basics/Assignment_1.sol\":304:305  5 */\n      0x05\n        /* \"Blockchain Basics/Assignment_1.sol\":292:301  publicVar */\n      sload(0x00)\n        /* \"Blockchain Basics/Assignment_1.sol\":292:305  publicVar + 5 */\n      tag_28\n      swap2\n      swap1\n      tag_29\n      jump\t// in\n    tag_28:\n        /* \"Blockchain Basics/Assignment_1.sol\":281:305  uint add = publicVar + 5 */\n      swap1\n      pop\n        /* \"Blockchain Basics/Assignment_1.sol\":316:324  uint sub */\n      0x00\n        /* \"Blockchain Basics/Assignment_1.sol\":339:340  5 */\n      0x05\n        /* \"Blockchain Basics/Assignment_1.sol\":327:336  publicVar */\n      sload(0x00)\n        /* \"Blockchain Basics/Assignment_1.sol\":327:340  publicVar - 5 */\n      tag_30\n      swap2\n      swap1\n      tag_31\n      jump\t// in\n    tag_30:\n        /* \"Blockchain Basics/Assignment_1.sol\":316:340  uint sub = publicVar - 5 */\n      swap1\n      pop\n        /* \"Blockchain Basics/Assignment_1.sol\":351:359  uint mul */\n      0x00\n        /* \"Blockchain Basics/Assignment_1.sol\":374:375  5 */\n      0x05\n        /* \"Blockchain Basics/Assignment_1.sol\":362:371  publicVar */\n      sload(0x00)\n        /* \"Blockchain Basics/Assignment_1.sol\":362:375  publicVar * 5 */\n      tag_32\n      swap2\n      swap1\n      tag_33\n      jump\t// in\n    tag_32:\n        /* \"Blockchain Basics/Assignment_1.sol\":351:375  uint mul = publicVar * 5 */\n      swap1\n      pop\n        /* \"Blockchain Basics/Assignment_1.sol\":386:397  uint divide */\n      0x00\n        /* \"Blockchain Basics/Assignment_1.sol\":412:413  5 */\n      0x05\n        /* \"Blockchain Basics/Assignment_1.sol\":400:409  publicVar */\n      sload(0x00)\n        /* \"Blockchain Basics/Assignment_1.sol\":400:413  publicVar / 5 */\n      tag_34\n      swap2\n      swap1\n      tag_35\n      jump\t// in\n    tag_34:\n        /* \"Blockchain Basics/Assignment_1.sol\":386:413  uint divide = publicVar / 5 */\n      swap1\n      pop\n        /* \"Blockchain Basics/Assignment_1.sol\":424:435  uint modulo */\n      0x00\n        /* \"Blockchain Basics/Assignment_1.sol\":450:451  5 */\n      0x05\n        /* \"Blockchain Basics/Assignment_1.sol\":438:447  publicVar */\n      sload(0x00)\n        /* \"Blockchain Basics/Assignment_1.sol\":438:451  publicVar % 5 */\n      tag_36\n      swap2\n      swap1\n      tag_37\n      jump\t// in\n    tag_36:\n        /* \"Blockchain Basics/Assignment_1.sol\":424:451  uint modulo = publicVar % 5 */\n      swap1\n      pop\n        /* \"Blockchain Basics/Assignment_1.sol\":472:475  add */\n      dup5\n        /* \"Blockchain Basics/Assignment_1.sol\":477:480  sub */\n      dup5\n        /* \"Blockchain Basics/Assignment_1.sol\":482:485  mul */\n      dup5\n        /* \"Blockchain Basics/Assignment_1.sol\":487:493  divide */\n      dup5\n        /* \"Blockchain Basics/Assignment_1.sol\":495:501  modulo */\n      dup5\n        /* \"Blockchain Basics/Assignment_1.sol\":464:502  return (add, sub, mul, divide, modulo) */\n      swap10\n      pop\n      swap10\n      pop\n      swap10\n      pop\n      swap10\n      pop\n      swap10\n      pop\n      pop\n      pop\n      pop\n      pop\n      pop\n        /* \"Blockchain Basics/Assignment_1.sol\":197:510  function arithmetic() public view returns (uint, uint, uint, uint, uint) {... */\n      swap1\n      swap2\n      swap3\n      swap4\n      swap5\n      jump\t// out\n        /* \"#utility.yul\":7:84   */\n    tag_38:\n        /* \"#utility.yul\":44:51   */\n      0x00\n        /* \"#utility.yul\":73:78   */\n      dup2\n        /* \"#utility.yul\":62:78   */\n      swap1\n      pop\n        /* \"#utility.yul\":7:84   */\n      swap2\n      swap1\n      pop\n      jump\t// out\n        /* \"#utility.yul\":90:208   */\n    tag_39:\n        /* \"#utility.yul\":177:201   */\n      tag_47\n        /* \"#utility.yul\":195:200   */\n      dup2\n        /* \"#utility.yul\":177:201   */\n      tag_38\n      jump\t// in\n    tag_47:\n        /* \"#utility.yul\":172:175   */\n      dup3\n        /* \"#utility.yul\":165:202   */\n      mstore\n        /* \"#utility.yul\":90:208   */\n      pop\n      pop\n      jump\t// out\n        /* \"#utility.yul\":214:436   */\n    tag_10:\n        /* \"#utility.yul\":307:311   */\n      0x00\n        /* \"#utility.yul\":345:347   */\n      0x20\n        /* \"#utility.yul\":334:343   */\n      dup3\n        /* \"#utility.yul\":330:348   */\n      add\n        /* \"#utility.yul\":322:348   */\n      swap1\n      pop\n        /* \"#utility.yul\":358:429   */\n      tag_49\n        /* \"#utility.yul\":426:427   */\n      0x00\n        /* \"#utility.yul\":415:424   */\n      dup4\n        /* \"#utility.yul\":411:428   */\n      add\n        /* \"#utility.yul\":402:408   */\n      dup5\n        /* \"#utility.yul\":358:429   */\n      tag_39\n      jump\t// in\n    tag_49:\n        /* \"#utility.yul\":214:436   */\n      swap3\n      swap2\n      pop\n      pop\n      jump\t// out\n        /* \"#utility.yul\":442:532   */\n    tag_40:\n        /* \"#utility.yul\":476:483   */\n      0x00\n        /* \"#utility.yul\":519:524   */\n      dup2\n        /* \"#utility.yul\":512:525   */\n      iszero\n        /* \"#utility.yul\":505:526   */\n      iszero\n        /* \"#utility.yul\":494:526   */\n      swap1\n      pop\n        /* \"#utility.yul\":442:532   */\n      swap2\n      swap1\n      pop\n      jump\t// out\n        /* \"#utility.yul\":538:647   */\n    tag_41:\n        /* \"#utility.yul\":619:640   */\n      tag_52\n        /* \"#utility.yul\":634:639   */\n      dup2\n        /* \"#utility.yul\":619:640   */\n      tag_40\n      jump\t// in\n    tag_52:\n        /* \"#utility.yul\":614:617   */\n      dup3\n        /* \"#utility.yul\":607:641   */\n      mstore\n        /* \"#utility.yul\":538:647   */\n      pop\n      pop\n      jump\t// out\n        /* \"#utility.yul\":653:1257   */\n    tag_14:\n        /* \"#utility.yul\":828:832   */\n      0x00\n        /* \"#utility.yul\":866:869   */\n      0xa0\n        /* \"#utility.yul\":855:864   */\n      dup3\n        /* \"#utility.yul\":851:870   */\n      add\n        /* \"#utility.yul\":843:870   */\n      swap1\n      pop\n        /* \"#utility.yul\":880:945   */\n      tag_54\n        /* \"#utility.yul\":942:943   */\n      0x00\n        /* \"#utility.yul\":931:940   */\n      dup4\n        /* \"#utility.yul\":927:944   */\n      add\n        /* \"#utility.yul\":918:924   */\n      dup9\n        /* \"#utility.yul\":880:945   */\n      tag_41\n      jump\t// in\n    tag_54:\n        /* \"#utility.yul\":955:1021   */\n      tag_55\n        /* \"#utility.yul\":1017:1019   */\n      0x20\n        /* \"#utility.yul\":1006:1015   */\n      dup4\n        /* \"#utility.yul\":1002:1020   */\n      add\n        /* \"#utility.yul\":993:999   */\n      dup8\n        /* \"#utility.yul\":955:1021   */\n      tag_41\n      jump\t// in\n    tag_55:\n        /* \"#utility.yul\":1031:1097   */\n      tag_56\n        /* \"#utility.yul\":1093:1095   */\n      0x40\n        /* \"#utility.yul\":1082:1091   */\n      dup4\n        /* \"#utility.yul\":1078:1096   */\n      add\n        /* \"#utility.yul\":1069:1075   */\n      dup7\n        /* \"#utility.yul\":1031:1097   */\n      tag_41\n      jump\t// in\n    tag_56:\n        /* \"#utility.yul\":1107:1173   */\n      tag_57\n        /* \"#utility.yul\":1169:1171   */\n      0x60\n        /* \"#utility.yul\":1158:1167   */\n      dup4\n        /* \"#utility.yul\":1154:1172   */\n      add\n        /* \"#utility.yul\":1145:1151   */\n      dup6\n        /* \"#utility.yul\":1107:1173   */\n      tag_41\n      jump\t// in\n    tag_57:\n        /* \"#utility.yul\":1183:1250   */\n      tag_58\n        /* \"#utility.yul\":1245:1248   */\n      0x80\n        /* \"#utility.yul\":1234:1243   */\n      dup4\n        /* \"#utility.yul\":1230:1249   */\n      add\n        /* \"#utility.yul\":1221:1227   */\n      dup5\n        /* \"#utility.yul\":1183:1250   */\n      tag_41\n      jump\t// in\n    tag_58:\n        /* \"#utility.yul\":653:1257   */\n      swap7\n      swap6\n      pop\n      pop\n      pop\n      pop\n      pop\n      pop\n      jump\t// out\n        /* \"#utility.yul\":1263:1669   */\n    tag_18:\n        /* \"#utility.yul\":1394:1398   */\n      0x00\n        /* \"#utility.yul\":1432:1434   */\n      0x60\n        /* \"#utility.yul\":1421:1430   */\n      dup3\n        /* \"#utility.yul\":1417:1435   */\n      add\n        /* \"#utility.yul\":1409:1435   */\n      swap1\n      pop\n        /* \"#utility.yul\":1445:1510   */\n      tag_60\n        /* \"#utility.yul\":1507:1508   */\n      0x00\n        /* \"#utility.yul\":1496:1505   */\n      dup4\n        /* \"#utility.yul\":1492:1509   */\n      add\n        /* \"#utility.yul\":1483:1489   */\n      dup7\n        /* \"#utility.yul\":1445:1510   */\n      tag_41\n      jump\t// in\n    tag_60:\n        /* \"#utility.yul\":1520:1586   */\n      tag_61\n        /* \"#utility.yul\":1582:1584   */\n      0x20\n        /* \"#utility.yul\":1571:1580   */\n      dup4\n        /* \"#utility.yul\":1567:1585   */\n      add\n        /* \"#utility.yul\":1558:1564   */\n      dup6\n        /* \"#utility.yul\":1520:1586   */\n      tag_41\n      jump\t// in\n    tag_61:\n        /* \"#utility.yul\":1596:1662   */\n      tag_62\n        /* \"#utility.yul\":1658:1660   */\n      0x40\n        /* \"#utility.yul\":1647:1656   */\n      dup4\n        /* \"#utility.yul\":1643:1661   */\n      add\n        /* \"#utility.yul\":1634:1640   */\n      dup5\n        /* \"#utility.yul\":1596:1662   */\n      tag_41\n      jump\t// in\n    tag_62:\n        /* \"#utility.yul\":1263:1669   */\n      swap5\n      swap4\n      pop\n      pop\n      pop\n      pop\n      jump\t// out\n        /* \"#utility.yul\":1675:2339   */\n    tag_22:\n        /* \"#utility.yul\":1880:1884   */\n      0x00\n        /* \"#utility.yul\":1918:1921   */\n      0xa0\n        /* \"#utility.yul\":1907:1916   */\n      dup3\n        /* \"#utility.yul\":1903:1922   */\n      add\n        /* \"#utility.yul\":1895:1922   */\n      swap1\n      pop\n        /* \"#utility.yul\":1932:2003   */\n      tag_64\n        /* \"#utility.yul\":2000:2001   */\n      0x00\n        /* \"#utility.yul\":1989:1998   */\n      dup4\n        /* \"#utility.yul\":1985:2002   */\n      add\n        /* \"#utility.yul\":1976:1982   */\n      dup9\n        /* \"#utility.yul\":1932:2003   */\n      tag_39\n      jump\t// in\n    tag_64:\n        /* \"#utility.yul\":2013:2085   */\n      tag_65\n        /* \"#utility.yul\":2081:2083   */\n      0x20\n        /* \"#utility.yul\":2070:2079   */\n      dup4\n        /* \"#utility.yul\":2066:2084   */\n      add\n        /* \"#utility.yul\":2057:2063   */\n      dup8\n        /* \"#utility.yul\":2013:2085   */\n      tag_39\n      jump\t// in\n    tag_65:\n        /* \"#utility.yul\":2095:2167   */\n      tag_66\n        /* \"#utility.yul\":2163:2165   */\n      0x40\n        /* \"#utility.yul\":2152:2161   */\n      dup4\n        /* \"#utility.yul\":2148:2166   */\n      add\n        /* \"#utility.yul\":2139:2145   */\n      dup7\n        /* \"#utility.yul\":2095:2167   */\n      tag_39\n      jump\t// in\n    tag_66:\n        /* \"#utility.yul\":2177:2249   */\n      tag_67\n        /* \"#utility.yul\":2245:2247   */\n      0x60\n        /* \"#utility.yul\":2234:2243   */\n      dup4\n        /* \"#utility.yul\":2230:2248   */\n      add\n        /* \"#utility.yul\":2221:2227   */\n      dup6\n        /* \"#utility.yul\":2177:2249   */\n      tag_39\n      jump\t// in\n    tag_67:\n        /* \"#utility.yul\":2259:2332   */\n      tag_68\n        /* \"#utility.yul\":2327:2330   */\n      0x80\n        /* \"#utility.yul\":2316:2325   */\n      dup4\n        /* \"#utility.yul\":2312:2331   */\n      add\n        /* \"#utility.yul\":2303:2309   */\n      dup5\n        /* \"#utility.yul\":2259:2332   */\n      tag_39\n      jump\t// in\n    tag_68:\n        /* \"#utility.yul\":1675:2339   */\n      swap7\n      swap6\n      pop\n      pop\n      pop\n      pop\n      pop\n      pop\n      jump\t// out\n        /* \"#utility.yul\":2345:2525   */\n    tag_42:\n        /* \"#utility.yul\":2393:2470   */\n      0x4e487b7100000000000000000000000000000000000000000000000000000000\n        /* \"#utility.yul\":2390:2391   */\n      0x00\n        /* \"#utility.yul\":2383:2471   */\n      mstore\n        /* \"#utility.yul\":2490:2494   */\n      0x11\n        /* \"#utility.yul\":2487:2488   */\n      0x04\n        /* \"#utility.yul\":2480:2495   */\n      mstore\n        /* \"#utility.yul\":2514:2518   */\n      0x24\n        /* \"#utility.yul\":2511:2512   */\n      0x00\n        /* \"#utility.yul\":2504:2519   */\n      revert\n        /* \"#utility.yul\":2531:2722   */\n    tag_29:\n        /* \"#utility.yul\":2571:2574   */\n      0x00\n        /* \"#utility.yul\":2590:2610   */\n      tag_71\n        /* \"#utility.yul\":2608:2609   */\n      dup3\n        /* \"#utility.yul\":2590:2610   */\n      tag_38\n      jump\t// in\n    tag_71:\n        /* \"#utility.yul\":2585:2610   */\n      swap2\n      pop\n        /* \"#utility.yul\":2624:2644   */\n      tag_72\n        /* \"#utility.yul\":2642:2643   */\n      dup4\n        /* \"#utility.yul\":2624:2644   */\n      tag_38\n      jump\t// in\n    tag_72:\n        /* \"#utility.yul\":2619:2644   */\n      swap3\n      pop\n        /* \"#utility.yul\":2667:2668   */\n      dup3\n        /* \"#utility.yul\":2664:2665   */\n      dup3\n        /* \"#utility.yul\":2660:2669   */\n      add\n        /* \"#utility.yul\":2653:2669   */\n      swap1\n      pop\n        /* \"#utility.yul\":2688:2691   */\n      dup1\n        /* \"#utility.yul\":2685:2686   */\n      dup3\n        /* \"#utility.yul\":2682:2692   */\n      gt\n        /* \"#utility.yul\":2679:2715   */\n      iszero\n      tag_73\n      jumpi\n        /* \"#utility.yul\":2695:2713   */\n      tag_74\n      tag_42\n      jump\t// in\n    tag_74:\n        /* \"#utility.yul\":2679:2715   */\n    tag_73:\n        /* \"#utility.yul\":2531:2722   */\n      swap3\n      swap2\n      pop\n      pop\n      jump\t// out\n        /* \"#utility.yul\":2728:2922   */\n    tag_31:\n        /* \"#utility.yul\":2768:2772   */\n      0x00\n        /* \"#utility.yul\":2788:2808   */\n      tag_76\n        /* \"#utility.yul\":2806:2807   */\n      dup3\n        /* \"#utility.yul\":2788:2808   */\n      tag_38\n      jump\t// in\n    tag_76:\n        /* \"#utility.yul\":2783:2808   */\n      swap2\n      pop\n        /* \"#utility.yul\":2822:2842   */\n      tag_77\n        /* \"#utility.yul\":2840:2841   */\n      dup4\n        /* \"#utility.yul\":2822:2842   */\n      tag_38\n      jump\t// in\n    tag_77:\n        /* \"#utility.yul\":2817:2842   */\n      swap3\n      pop\n        /* \"#utility.yul\":2866:2867   */\n      dup3\n        /* \"#utility.yul\":2863:2864   */\n      dup3\n        /* \"#utility.yul\":2859:2868   */\n      sub\n        /* \"#utility.yul\":2851:2868   */\n      swap1\n      pop\n        /* \"#utility.yul\":2890:2891   */\n      dup2\n        /* \"#utility.yul\":2884:2888   */\n      dup2\n        /* \"#utility.yul\":2881:2892   */\n      gt\n        /* \"#utility.yul\":2878:2915   */\n      iszero\n      tag_78\n      jumpi\n        /* \"#utility.yul\":2895:2913   */\n      tag_79\n      tag_42\n      jump\t// in\n    tag_79:\n        /* \"#utility.yul\":2878:2915   */\n    tag_78:\n        /* \"#utility.yul\":2728:2922   */\n      swap3\n      swap2\n      pop\n      pop\n      jump\t// out\n        /* \"#utility.yul\":2928:3338   */\n    tag_33:\n        /* \"#utility.yul\":2968:2975   */\n      0x00\n        /* \"#utility.yul\":2991:3011   */\n      tag_81\n        /* \"#utility.yul\":3009:3010   */\n      dup3\n        /* \"#utility.yul\":2991:3011   */\n      tag_38\n      jump\t// in\n    tag_81:\n        /* \"#utility.yul\":2986:3011   */\n      swap2\n      pop\n        /* \"#utility.yul\":3025:3045   */\n      tag_82\n        /* \"#utility.yul\":3043:3044   */\n      dup4\n        /* \"#utility.yul\":3025:3045   */\n      tag_38\n      jump\t// in\n    tag_82:\n        /* \"#utility.yul\":3020:3045   */\n      swap3\n      pop\n        /* \"#utility.yul\":3080:3081   */\n      dup3\n        /* \"#utility.yul\":3077:3078   */\n      dup3\n        /* \"#utility.yul\":3073:3082   */\n      mul\n        /* \"#utility.yul\":3102:3132   */\n      tag_83\n        /* \"#utility.yul\":3120:3131   */\n      dup2\n        /* \"#utility.yul\":3102:3132   */\n      tag_38\n      jump\t// in\n    tag_83:\n        /* \"#utility.yul\":3091:3132   */\n      swap2\n      pop\n        /* \"#utility.yul\":3281:3282   */\n      dup3\n        /* \"#utility.yul\":3272:3279   */\n      dup3\n        /* \"#utility.yul\":3268:3283   */\n      div\n        /* \"#utility.yul\":3265:3266   */\n      dup5\n        /* \"#utility.yul\":3262:3284   */\n      eq\n        /* \"#utility.yul\":3242:3243   */\n      dup4\n        /* \"#utility.yul\":3235:3244   */\n      iszero\n        /* \"#utility.yul\":3215:3298   */\n      or\n        /* \"#utility.yul\":3192:3331   */\n      tag_84\n      jumpi\n        /* \"#utility.yul\":3311:3329   */\n      tag_85\n      tag_42\n      jump\t// in\n    tag_85:\n        /* \"#utility.yul\":3192:3331   */\n    tag_84:\n        /* \"#utility.yul\":2976:3338   */\n      pop\n        /* \"#utility.yul\":2928:3338   */\n      swap3\n      swap2\n      pop\n      pop\n      jump\t// out\n        /* \"#utility.yul\":3344:3524   */\n    tag_43:\n        /* \"#utility.yul\":3392:3469   */\n      0x4e487b7100000000000000000000000000000000000000000000000000000000\n        /* \"#utility.yul\":3389:3390   */\n      0x00\n        /* \"#utility.yul\":3382:3470   */\n      mstore\n        /* \"#utility.yul\":3489:3493   */\n      0x12\n        /* \"#utility.yul\":3486:3487   */\n      0x04\n        /* \"#utility.yul\":3479:3494   */\n      mstore\n        /* \"#utility.yul\":3513:3517   */\n      0x24\n        /* \"#utility.yul\":3510:3511   */\n      0x00\n        /* \"#utility.yul\":3503:3518   */\n      revert\n        /* \"#utility.yul\":3530:3715   */\n    tag_35:\n        /* \"#utility.yul\":3570:3571   */\n      0x00\n        /* \"#utility.yul\":3587:3607   */\n      tag_88\n        /* \"#utility.yul\":3605:3606   */\n      dup3\n        /* \"#utility.yul\":3587:3607   */\n      tag_38\n      jump\t// in\n    tag_88:\n        /* \"#utility.yul\":3582:3607   */\n      swap2\n      pop\n        /* \"#utility.yul\":3621:3641   */\n      tag_89\n        /* \"#utility.yul\":3639:3640   */\n      dup4\n        /* \"#utility.yul\":3621:3641   */\n      tag_38\n      jump\t// in\n    tag_89:\n        /* \"#utility.yul\":3616:3641   */\n      swap3\n      pop\n        /* \"#utility.yul\":3660:3661   */\n      dup3\n        /* \"#utility.yul\":3650:3685   */\n      tag_90\n      jumpi\n        /* \"#utility.yul\":3665:3683   */\n      tag_91\n      tag_43\n      jump\t// in\n    tag_91:\n        /* \"#utility.yul\":3650:3685   */\n    tag_90:\n        /* \"#utility.yul\":3707:3708   */\n      dup3\n        /* \"#utility.yul\":3704:3705   */\n      dup3\n        /* \"#utility.yul\":3700:3709   */\n      div\n        /* \"#utility.yul\":3695:3709   */\n      swap1\n      pop\n        /* \"#utility.yul\":3530:3715   */\n      swap3\n      swap2\n      pop\n      pop\n      jump\t// out\n        /* \"#utility.yul\":3721:3897   */\n    tag_37:\n        /* \"#utility.yul\":3753:3754   */\n      0x00\n        /* \"#utility.yul\":3770:3790   */\n      tag_93\n        /* \"#utility.yul\":3788:3789   */\n      dup3\n        /* \"#utility.yul\":3770:3790   */\n      tag_38\n      jump\t// in\n    tag_93:\n        /* \"#utility.yul\":3765:3790   */\n      swap2\n      pop\n        /* \"#utility.yul\":3804:3824   */\n      tag_94\n        /* \"#utility.yul\":3822:3823   */\n      dup4\n        /* \"#utility.yul\":3804:3824   */\n      tag_38\n      jump\t// in\n    tag_94:\n        /* \"#utility.yul\":3799:3824   */\n      swap3\n      pop\n        /* \"#utility.yul\":3843:3844   */\n      dup3\n        /* \"#utility.yul\":3833:3868   */\n      tag_95\n      jumpi\n        /* \"#utility.yul\":3848:3866   */\n      tag_96\n      tag_43\n      jump\t// in\n    tag_96:\n        /* \"#utility.yul\":3833:3868   */\n    tag_95:\n        /* \"#utility.yul\":3889:3890   */\n      dup3\n        /* \"#utility.yul\":3886:3887   */\n      dup3\n        /* \"#utility.yul\":3882:3891   */\n      mod\n        /* \"#utility.yul\":3877:3891   */\n      swap1\n      pop\n        /* \"#utility.yul\":3721:3897   */\n      swap3\n      swap2\n      pop\n      pop\n      jump\t// out\n\n    auxdata: 0xa2646970667358221220b1041cd55a227be54313adaaf6ab2106ba22eda66d5b3f21c5b2b3d3bfb6610364736f6c634300081a0033\n}\n",
				"bytecode": {
					"linkReferences": {},
					"object": "6080604052600a5f5560066001556003600255348015601c575f80fd5b506104978061002a5f395ff3fe608060405234801561000f575f80fd5b506004361061004a575f3560e01c80631151fad81461004e57806346d46df21461006c57806393daa3671461008e578063980a67fd146100ae575b5f80fd5b6100566100d0565b60405161006391906101f6565b60405180910390f35b6100746100d5565b604051610085959493929190610229565b60405180910390f35b610096610124565b6040516100a59392919061027a565b60405180910390f35b6100b6610169565b6040516100c79594939291906102af565b60405180910390f35b5f5481565b5f805f805f805f546001541490505f8054600154141590505f80546001541190505f80546001541090505f80546001541015905084848484849950995099509950995050505050509091929394565b5f805f8060055f541190505f60056001541090505f8280156101435750815b90505f838061014f5750825b90505f841590508282829750975097505050505050909192565b5f805f805f8060055f5461017d919061032d565b90505f60055f5461018e9190610360565b90505f60055f5461019f9190610393565b90505f60055f546101b09190610401565b90505f60055f546101c19190610431565b905084848484849950995099509950995050505050509091929394565b5f819050919050565b6101f0816101de565b82525050565b5f6020820190506102095f8301846101e7565b92915050565b5f8115159050919050565b6102238161020f565b82525050565b5f60a08201905061023c5f83018861021a565b610249602083018761021a565b610256604083018661021a565b610263606083018561021a565b610270608083018461021a565b9695505050505050565b5f60608201905061028d5f83018661021a565b61029a602083018561021a565b6102a7604083018461021a565b949350505050565b5f60a0820190506102c25f8301886101e7565b6102cf60208301876101e7565b6102dc60408301866101e7565b6102e960608301856101e7565b6102f660808301846101e7565b9695505050505050565b7f4e487b71000000000000000000000000000000000000000000000000000000005f52601160045260245ffd5b5f610337826101de565b9150610342836101de565b925082820190508082111561035a57610359610300565b5b92915050565b5f61036a826101de565b9150610375836101de565b925082820390508181111561038d5761038c610300565b5b92915050565b5f61039d826101de565b91506103a8836101de565b92508282026103b6816101de565b915082820484148315176103cd576103cc610300565b5b5092915050565b7f4e487b71000000000000000000000000000000000000000000000000000000005f52601260045260245ffd5b5f61040b826101de565b9150610416836101de565b925082610426576104256103d4565b5b828204905092915050565b5f61043b826101de565b9150610446836101de565b925082610456576104556103d4565b5b82820690509291505056fea2646970667358221220b1041cd55a227be54313adaaf6ab2106ba22eda66d5b3f21c5b2b3d3bfb6610364736f6c634300081a0033",
					"opcodes": "PUSH1 0x80 PUSH1 0x40 MSTORE PUSH1 0xA PUSH0 SSTORE PUSH1 0x6 PUSH1 0x1 SSTORE PUSH1 0x3 PUSH1 0x2 SSTORE CALLVALUE DUP1 ISZERO PUSH1 0x1C JUMPI PUSH0 DUP1 REVERT JUMPDEST POP PUSH2 0x497 DUP1 PUSH2 0x2A PUSH0 CODECOPY PUSH0 RETURN INVALID PUSH1 0x80 PUSH1 0x40 MSTORE CALLVALUE DUP1 ISZERO PUSH2 0xF JUMPI PUSH0 DUP1 REVERT JUMPDEST POP PUSH1 0x4 CALLDATASIZE LT PUSH2 0x4A JUMPI PUSH0 CALLDATALOAD PUSH1 0xE0 SHR DUP1 PUSH4 0x1151FAD8 EQ PUSH2 0x4E JUMPI DUP1 PUSH4 0x46D46DF2 EQ PUSH2 0x6C JUMPI DUP1 PUSH4 0x93DAA367 EQ PUSH2 0x8E JUMPI DUP1 PUSH4 0x980A67FD EQ PUSH2 0xAE JUMPI JUMPDEST PUSH0 DUP1 REVERT JUMPDEST PUSH2 0x56 PUSH2 0xD0 JUMP JUMPDEST PUSH1 0x40 MLOAD PUSH2 0x63 SWAP2 SWAP1 PUSH2 0x1F6 JUMP JUMPDEST PUSH1 0x40 MLOAD DUP1 SWAP2 SUB SWAP1 RETURN JUMPDEST PUSH2 0x74 PUSH2 0xD5 JUMP JUMPDEST PUSH1 0x40 MLOAD PUSH2 0x85 SWAP6 SWAP5 SWAP4 SWAP3 SWAP2 SWAP1 PUSH2 0x229 JUMP JUMPDEST PUSH1 0x40 MLOAD DUP1 SWAP2 SUB SWAP1 RETURN JUMPDEST PUSH2 0x96 PUSH2 0x124 JUMP JUMPDEST PUSH1 0x40 MLOAD PUSH2 0xA5 SWAP4 SWAP3 SWAP2 SWAP1 PUSH2 0x27A JUMP JUMPDEST PUSH1 0x40 MLOAD DUP1 SWAP2 SUB SWAP1 RETURN JUMPDEST PUSH2 0xB6 PUSH2 0x169 JUMP JUMPDEST PUSH1 0x40 MLOAD PUSH2 0xC7 SWAP6 SWAP5 SWAP4 SWAP3 SWAP2 SWAP1 PUSH2 0x2AF JUMP JUMPDEST PUSH1 0x40 MLOAD DUP1 SWAP2 SUB SWAP1 RETURN JUMPDEST PUSH0 SLOAD DUP2 JUMP JUMPDEST PUSH0 DUP1 PUSH0 DUP1 PUSH0 DUP1 PUSH0 SLOAD PUSH1 0x1 SLOAD EQ SWAP1 POP PUSH0 DUP1 SLOAD PUSH1 0x1 SLOAD EQ ISZERO SWAP1 POP PUSH0 DUP1 SLOAD PUSH1 0x1 SLOAD GT SWAP1 POP PUSH0 DUP1 SLOAD PUSH1 0x1 SLOAD LT SWAP1 POP PUSH0 DUP1 SLOAD PUSH1 0x1 SLOAD LT ISZERO SWAP1 POP DUP5 DUP5 DUP5 DUP5 DUP5 SWAP10 POP SWAP10 POP SWAP10 POP SWAP10 POP SWAP10 POP POP POP POP POP POP SWAP1 SWAP2 SWAP3 SWAP4 SWAP5 JUMP JUMPDEST PUSH0 DUP1 PUSH0 DUP1 PUSH1 0x5 PUSH0 SLOAD GT SWAP1 POP PUSH0 PUSH1 0x5 PUSH1 0x1 SLOAD LT SWAP1 POP PUSH0 DUP3 DUP1 ISZERO PUSH2 0x143 JUMPI POP DUP2 JUMPDEST SWAP1 POP PUSH0 DUP4 DUP1 PUSH2 0x14F JUMPI POP DUP3 JUMPDEST SWAP1 POP PUSH0 DUP5 ISZERO SWAP1 POP DUP3 DUP3 DUP3 SWAP8 POP SWAP8 POP SWAP8 POP POP POP POP POP POP SWAP1 SWAP2 SWAP3 JUMP JUMPDEST PUSH0 DUP1 PUSH0 DUP1 PUSH0 DUP1 PUSH1 0x5 PUSH0 SLOAD PUSH2 0x17D SWAP2 SWAP1 PUSH2 0x32D JUMP JUMPDEST SWAP1 POP PUSH0 PUSH1 0x5 PUSH0 SLOAD PUSH2 0x18E SWAP2 SWAP1 PUSH2 0x360 JUMP JUMPDEST SWAP1 POP PUSH0 PUSH1 0x5 PUSH0 SLOAD PUSH2 0x19F SWAP2 SWAP1 PUSH2 0x393 JUMP JUMPDEST SWAP1 POP PUSH0 PUSH1 0x5 PUSH0 SLOAD PUSH2 0x1B0 SWAP2 SWAP1 PUSH2 0x401 JUMP JUMPDEST SWAP1 POP PUSH0 PUSH1 0x5 PUSH0 SLOAD PUSH2 0x1C1 SWAP2 SWAP1 PUSH2 0x431 JUMP JUMPDEST SWAP1 POP DUP5 DUP5 DUP5 DUP5 DUP5 SWAP10 POP SWAP10 POP SWAP10 POP SWAP10 POP SWAP10 POP POP POP POP POP POP SWAP1 SWAP2 SWAP3 SWAP4 SWAP5 JUMP JUMPDEST PUSH0 DUP2 SWAP1 POP SWAP2 SWAP1 POP JUMP JUMPDEST PUSH2 0x1F0 DUP2 PUSH2 0x1DE JUMP JUMPDEST DUP3 MSTORE POP POP JUMP JUMPDEST PUSH0 PUSH1 0x20 DUP3 ADD SWAP1 POP PUSH2 0x209 PUSH0 DUP4 ADD DUP5 PUSH2 0x1E7 JUMP JUMPDEST SWAP3 SWAP2 POP POP JUMP JUMPDEST PUSH0 DUP2 ISZERO ISZERO SWAP1 POP SWAP2 SWAP1 POP JUMP JUMPDEST PUSH2 0x223 DUP2 PUSH2 0x20F JUMP JUMPDEST DUP3 MSTORE POP POP JUMP JUMPDEST PUSH0 PUSH1 0xA0 DUP3 ADD SWAP1 POP PUSH2 0x23C PUSH0 DUP4 ADD DUP9 PUSH2 0x21A JUMP JUMPDEST PUSH2 0x249 PUSH1 0x20 DUP4 ADD DUP8 PUSH2 0x21A JUMP JUMPDEST PUSH2 0x256 PUSH1 0x40 DUP4 ADD DUP7 PUSH2 0x21A JUMP JUMPDEST PUSH2 0x263 PUSH1 0x60 DUP4 ADD DUP6 PUSH2 0x21A JUMP JUMPDEST PUSH2 0x270 PUSH1 0x80 DUP4 ADD DUP5 PUSH2 0x21A JUMP JUMPDEST SWAP7 SWAP6 POP POP POP POP POP POP JUMP JUMPDEST PUSH0 PUSH1 0x60 DUP3 ADD SWAP1 POP PUSH2 0x28D PUSH0 DUP4 ADD DUP7 PUSH2 0x21A JUMP JUMPDEST PUSH2 0x29A PUSH1 0x20 DUP4 ADD DUP6 PUSH2 0x21A JUMP JUMPDEST PUSH2 0x2A7 PUSH1 0x40 DUP4 ADD DUP5 PUSH2 0x21A JUMP JUMPDEST SWAP5 SWAP4 POP POP POP POP JUMP JUMPDEST PUSH0 PUSH1 0xA0 DUP3 ADD SWAP1 POP PUSH2 0x2C2 PUSH0 DUP4 ADD DUP9 PUSH2 0x1E7 JUMP JUMPDEST PUSH2 0x2CF PUSH1 0x20 DUP4 ADD DUP8 PUSH2 0x1E7 JUMP JUMPDEST PUSH2 0x2DC PUSH1 0x40 DUP4 ADD DUP7 PUSH2 0x1E7 JUMP JUMPDEST PUSH2 0x2E9 PUSH1 0x60 DUP4 ADD DUP6 PUSH2 0x1E7 JUMP JUMPDEST PUSH2 0x2F6 PUSH1 0x80 DUP4 ADD DUP5 PUSH2 0x1E7 JUMP JUMPDEST SWAP7 SWAP6 POP POP POP POP POP POP JUMP JUMPDEST PUSH32 0x4E487B7100000000000000000000000000000000000000000000000000000000 PUSH0 MSTORE PUSH1 0x11 PUSH1 0x4 MSTORE PUSH1 0x24 PUSH0 REVERT JUMPDEST PUSH0 PUSH2 0x337 DUP3 PUSH2 0x1DE JUMP JUMPDEST SWAP2 POP PUSH2 0x342 DUP4 PUSH2 0x1DE JUMP JUMPDEST SWAP3 POP DUP3 DUP3 ADD SWAP1 POP DUP1 DUP3 GT ISZERO PUSH2 0x35A JUMPI PUSH2 0x359 PUSH2 0x300 JUMP JUMPDEST JUMPDEST SWAP3 SWAP2 POP POP JUMP JUMPDEST PUSH0 PUSH2 0x36A DUP3 PUSH2 0x1DE JUMP JUMPDEST SWAP2 POP PUSH2 0x375 DUP4 PUSH2 0x1DE JUMP JUMPDEST SWAP3 POP DUP3 DUP3 SUB SWAP1 POP DUP2 DUP2 GT ISZERO PUSH2 0x38D JUMPI PUSH2 0x38C PUSH2 0x300 JUMP JUMPDEST JUMPDEST SWAP3 SWAP2 POP POP JUMP JUMPDEST PUSH0 PUSH2 0x39D DUP3 PUSH2 0x1DE JUMP JUMPDEST SWAP2 POP PUSH2 0x3A8 DUP4 PUSH2 0x1DE JUMP JUMPDEST SWAP3 POP DUP3 DUP3 MUL PUSH2 0x3B6 DUP2 PUSH2 0x1DE JUMP JUMPDEST SWAP2 POP DUP3 DUP3 DIV DUP5 EQ DUP4 ISZERO OR PUSH2 0x3CD JUMPI PUSH2 0x3CC PUSH2 0x300 JUMP JUMPDEST JUMPDEST POP SWAP3 SWAP2 POP POP JUMP JUMPDEST PUSH32 0x4E487B7100000000000000000000000000000000000000000000000000000000 PUSH0 MSTORE PUSH1 0x12 PUSH1 0x4 MSTORE PUSH1 0x24 PUSH0 REVERT JUMPDEST PUSH0 PUSH2 0x40B DUP3 PUSH2 0x1DE JUMP JUMPDEST SWAP2 POP PUSH2 0x416 DUP4 PUSH2 0x1DE JUMP JUMPDEST SWAP3 POP DUP3 PUSH2 0x426 JUMPI PUSH2 0x425 PUSH2 0x3D4 JUMP JUMPDEST JUMPDEST DUP3 DUP3 DIV SWAP1 POP SWAP3 SWAP2 POP POP JUMP JUMPDEST PUSH0 PUSH2 0x43B DUP3 PUSH2 0x1DE JUMP JUMPDEST SWAP2 POP PUSH2 0x446 DUP4 PUSH2 0x1DE JUMP JUMPDEST SWAP3 POP DUP3 PUSH2 0x456 JUMPI PUSH2 0x455 PUSH2 0x3D4 JUMP JUMPDEST JUMPDEST DUP3 DUP3 MOD SWAP1 POP SWAP3 SWAP2 POP POP JUMP INVALID LOG2 PUSH5 0x6970667358 0x22 SLT KECCAK256 0xB1 DIV SHR 0xD5 GAS 0x22 PUSH28 0xE54313ADAAF6AB2106BA22EDA66D5B3F21C5B2B3D3BFB6610364736F PUSH13 0x634300081A0033000000000000 "
				},
				"gasEstimates": {
					"creation": {
						"codeDepositCost": "235000",
						"executionCost": "66590",
						"totalCost": "301590"
					},
					"external": {
						"arithmetic()": "infinite",
						"logical()": "infinite",
						"publicVar()": "2402",
						"relational()": "infinite"
					}
				},
				"methodIdentifiers": {
					"arithmetic()": "980a67fd",
					"logical()": "93daa367",
					"publicVar()": "1151fad8",
					"relational()": "46d46df2"
				}
			},
			"storageLayout": {
				"storage": [
					{
						"astId": 4,
						"contract": "Blockchain Basics/Assignment_1.sol:Assignment1",
						"label": "publicVar",
						"offset": 0,
						"slot": "0",
						"type": "t_uint256"
					},
					{
						"astId": 7,
						"contract": "Blockchain Basics/Assignment_1.sol:Assignment1",
						"label": "privateVar",
						"offset": 0,
						"slot": "1",
						"type": "t_uint256"
					},
					{
						"astId": 10,
						"contract": "Blockchain Basics/Assignment_1.sol:Assignment1",
						"label": "internalVar",
						"offset": 0,
						"slot": "2",
						"type": "t_uint256"
					}
				],
				"types": {
					"t_uint256": {
						"encoding": "inplace",
						"label": "uint256",
						"numberOfBytes": "32"
					}
				}
			},
			"userdoc": {
				"kind": "user",
				"methods": {},
				"version": 1
			}
		}
	}
}